{
  "contracts/UniswapInfoFetcher.sol": {
    "UniswapInfoFetcher": {
      "abi": [
        {
          "inputs": [
            {
              "internalType": "uint256",
              "name": "reserve0",
              "type": "uint256"
            },
            {
              "internalType": "uint256",
              "name": "reserve1",
              "type": "uint256"
            },
            {
              "internalType": "uint8",
              "name": "decimals0",
              "type": "uint8"
            },
            {
              "internalType": "uint8",
              "name": "decimals1",
              "type": "uint8"
            }
          ],
          "name": "calculateV2Prices",
          "outputs": [
            {
              "components": [
                {
                  "internalType": "uint256",
                  "name": "price0Per1",
                  "type": "uint256"
                },
                {
                  "internalType": "uint256",
                  "name": "price1Per0",
                  "type": "uint256"
                }
              ],
              "internalType": "struct UniswapInfoFetcher.PriceInfo",
              "name": "",
              "type": "tuple"
            }
          ],
          "stateMutability": "pure",
          "type": "function"
        },
        {
          "inputs": [
            {
              "internalType": "uint160",
              "name": "sqrtPriceX96",
              "type": "uint160"
            },
            {
              "internalType": "uint8",
              "name": "decimals0",
              "type": "uint8"
            },
            {
              "internalType": "uint8",
              "name": "decimals1",
              "type": "uint8"
            }
          ],
          "name": "calculateV3Prices",
          "outputs": [
            {
              "components": [
                {
                  "internalType": "uint256",
                  "name": "price0Per1",
                  "type": "uint256"
                },
                {
                  "internalType": "uint256",
                  "name": "price1Per0",
                  "type": "uint256"
                }
              ],
              "internalType": "struct UniswapInfoFetcher.PriceInfo",
              "name": "",
              "type": "tuple"
            }
          ],
          "stateMutability": "pure",
          "type": "function"
        },
        {
          "inputs": [],
          "name": "getBlockInfo",
          "outputs": [
            {
              "internalType": "uint256",
              "name": "blockNumber",
              "type": "uint256"
            },
            {
              "internalType": "uint256",
              "name": "timestamp",
              "type": "uint256"
            }
          ],
          "stateMutability": "view",
          "type": "function"
        },
        {
          "inputs": [
            {
              "internalType": "address",
              "name": "pairAddress",
              "type": "address"
            }
          ],
          "name": "getV2PairInfo",
          "outputs": [
            {
              "components": [
                {
                  "internalType": "string",
                  "name": "name",
                  "type": "string"
                },
                {
                  "internalType": "string",
                  "name": "symbol",
                  "type": "string"
                },
                {
                  "components": [
                    {
                      "internalType": "address",
                      "name": "tokenAddress",
                      "type": "address"
                    },
                    {
                      "internalType": "string",
                      "name": "name",
                      "type": "string"
                    },
                    {
                      "internalType": "string",
                      "name": "symbol",
                      "type": "string"
                    },
                    {
                      "internalType": "uint8",
                      "name": "decimals",
                      "type": "uint8"
                    }
                  ],
                  "internalType": "struct UniswapInfoFetcher.TokenInfo",
                  "name": "token0",
                  "type": "tuple"
                },
                {
                  "components": [
                    {
                      "internalType": "address",
                      "name": "tokenAddress",
                      "type": "address"
                    },
                    {
                      "internalType": "string",
                      "name": "name",
                      "type": "string"
                    },
                    {
                      "internalType": "string",
                      "name": "symbol",
                      "type": "string"
                    },
                    {
                      "internalType": "uint8",
                      "name": "decimals",
                      "type": "uint8"
                    }
                  ],
                  "internalType": "struct UniswapInfoFetcher.TokenInfo",
                  "name": "token1",
                  "type": "tuple"
                },
                {
                  "internalType": "uint256",
                  "name": "reserve0",
                  "type": "uint256"
                },
                {
                  "internalType": "uint256",
                  "name": "reserve1",
                  "type": "uint256"
                },
                {
                  "components": [
                    {
                      "internalType": "uint256",
                      "name": "price0Per1",
                      "type": "uint256"
                    },
                    {
                      "internalType": "uint256",
                      "name": "price1Per0",
                      "type": "uint256"
                    }
                  ],
                  "internalType": "struct UniswapInfoFetcher.PriceInfo",
                  "name": "prices",
                  "type": "tuple"
                }
              ],
              "internalType": "struct UniswapInfoFetcher.PairInfo",
              "name": "",
              "type": "tuple"
            }
          ],
          "stateMutability": "view",
          "type": "function"
        },
        {
          "inputs": [
            {
              "internalType": "address",
              "name": "poolAddress",
              "type": "address"
            }
          ],
          "name": "getV3PairInfo",
          "outputs": [
            {
              "components": [
                {
                  "internalType": "string",
                  "name": "name",
                  "type": "string"
                },
                {
                  "internalType": "string",
                  "name": "symbol",
                  "type": "string"
                },
                {
                  "components": [
                    {
                      "internalType": "address",
                      "name": "tokenAddress",
                      "type": "address"
                    },
                    {
                      "internalType": "string",
                      "name": "name",
                      "type": "string"
                    },
                    {
                      "internalType": "string",
                      "name": "symbol",
                      "type": "string"
                    },
                    {
                      "internalType": "uint8",
                      "name": "decimals",
                      "type": "uint8"
                    }
                  ],
                  "internalType": "struct UniswapInfoFetcher.TokenInfo",
                  "name": "token0",
                  "type": "tuple"
                },
                {
                  "components": [
                    {
                      "internalType": "address",
                      "name": "tokenAddress",
                      "type": "address"
                    },
                    {
                      "internalType": "string",
                      "name": "name",
                      "type": "string"
                    },
                    {
                      "internalType": "string",
                      "name": "symbol",
                      "type": "string"
                    },
                    {
                      "internalType": "uint8",
                      "name": "decimals",
                      "type": "uint8"
                    }
                  ],
                  "internalType": "struct UniswapInfoFetcher.TokenInfo",
                  "name": "token1",
                  "type": "tuple"
                },
                {
                  "internalType": "uint160",
                  "name": "sqrtPriceX96",
                  "type": "uint160"
                },
                {
                  "internalType": "int24",
                  "name": "tick",
                  "type": "int24"
                },
                {
                  "components": [
                    {
                      "internalType": "uint256",
                      "name": "price0Per1",
                      "type": "uint256"
                    },
                    {
                      "internalType": "uint256",
                      "name": "price1Per0",
                      "type": "uint256"
                    }
                  ],
                  "internalType": "struct UniswapInfoFetcher.PriceInfo",
                  "name": "prices",
                  "type": "tuple"
                }
              ],
              "internalType": "struct UniswapInfoFetcher.V3PairInfo",
              "name": "",
              "type": "tuple"
            }
          ],
          "stateMutability": "view",
          "type": "function"
        }
      ],
      "evm": {
        "bytecode": {
          "linkReferences": {},
          "object": "608060405234801561001057600080fd5b5061117a806100206000396000f3fe608060405234801561001057600080fd5b50600436106100665760003560e01c8063a294bf7e11610050578063a294bf7e146100a3578063c9f005a6146100c3578063e549539c146100e357600080fd5b80628194391461006b57806378f6cd5714610083575b600080fd5b60408051438152426020820152015b60405180910390f35b6100966100913660046109b1565b6100f6565b60405161007a91906109fb565b6100b66100b1366004610a29565b610198565b60405161007a9190610af8565b6100d66100d1366004610a29565b6103d4565b60405161007a9190610baa565b6100966100f1366004610c68565b6105f1565b6040805180820190915260008082526020820152841580610115575083155b1561013457506040805180820190915260008082526020820152610190565b60008461014284600a610dad565b61014c9088610dbc565b6101569190610dd3565b905060008661016686600a610dad565b6101709088610dbc565b61017a9190610dd3565b6040805180820190915292835260208301525090505b949350505050565b6101a0610840565b60008290506000816001600160a01b0316630dfe16816040518163ffffffff1660e01b8152600401602060405180830381865afa1580156101e5573d6000803e3d6000fd5b505050506040513d601f19601f820116820180604052508101906102099190610df5565b90506000826001600160a01b031663d21220a76040518163ffffffff1660e01b8152600401602060405180830381865afa15801561024b573d6000803e3d6000fd5b505050506040513d601f19601f8201168201806040525081019061026f9190610df5565b9050600080846001600160a01b0316630902f1ac6040518163ffffffff1660e01b8152600401606060405180830381865afa1580156102b2573d6000803e3d6000fd5b505050506040513d601f19601f820116820180604052508101906102d69190610e35565b509150915060006102e6856106a6565b905060006102f3856106a6565b9050600061032b856dffffffffffffffffffffffffffff16856dffffffffffffffffffffffffffff16856060015185606001516100f6565b905060008360400151836040015160405160200161034a929190610e7a565b6040516020818303038152906040529050600084604001518460400151604051602001610378929190610edf565b60408051601f1981840301815260e08301825293825260208201939093529182019490945260608101929092526dffffffffffffffffffffffffffff94851660808301529290931660a08401525060c082015295945050505050565b6103dc6108ec565b60008290506000816001600160a01b0316630dfe16816040518163ffffffff1660e01b8152600401602060405180830381865afa158015610421573d6000803e3d6000fd5b505050506040513d601f19601f820116820180604052508101906104459190610df5565b90506000826001600160a01b031663d21220a76040518163ffffffff1660e01b8152600401602060405180830381865afa158015610487573d6000803e3d6000fd5b505050506040513d601f19601f820116820180604052508101906104ab9190610df5565b9050600080846001600160a01b0316633850c7bd6040518163ffffffff1660e01b815260040160e060405180830381865afa1580156104ee573d6000803e3d6000fd5b505050506040513d601f19601f820116820180604052508101906105129190610f56565b5050505050915091506000610526856106a6565b90506000610533856106a6565b9050600061054a85846060015184606001516105f1565b9050600083604001518360400151604051602001610569929190610ff4565b604051602081830303815290604052905060008460400151846040015160405160200161059792919061102c565b60408051601f1981840301815260e08301825293825260208201939093529182019490945260608101929092526001600160a01b03909416608082015260029290920b60a08301525060c081019190915295945050505050565b60408051808201909152600080825260208201526000600160c01b61061785600a610dad565b61062a6001600160a01b03881680610dbc565b6106349190610dbc565b61063e9190610dd3565b9050600081156106855761065b6001600160a01b03871680610dbc565b61066685600a610dad565b61067490600160c01b610dbc565b61067e9190610dd3565b9050610689565b5060005b604080518082019091529081526020810191909152949350505050565b6106dd604051806080016040528060006001600160a01b031681526020016060815260200160608152602001600060ff1681525090565b60008290506040518060800160405280846001600160a01b03168152602001826001600160a01b03166306fdde036040518163ffffffff1660e01b8152600401600060405180830381865afa15801561073a573d6000803e3d6000fd5b505050506040513d6000823e601f3d908101601f19168201604052610762919081019061107a565b8152602001826001600160a01b03166395d89b416040518163ffffffff1660e01b8152600401600060405180830381865afa1580156107a5573d6000803e3d6000fd5b505050506040513d6000823e601f3d908101601f191682016040526107cd919081019061107a565b8152602001826001600160a01b031663313ce5676040518163ffffffff1660e01b8152600401602060405180830381865afa158015610810573d6000803e3d6000fd5b505050506040513d601f19601f820116820180604052508101906108349190611127565b60ff1690529392505050565b6040518060e001604052806060815260200160608152602001610890604051806080016040528060006001600160a01b031681526020016060815260200160608152602001600060ff1681525090565b815260408051608081018252600080825260606020838101829052938301819052820152910190815260200160008152602001600081526020016108e7604051806040016040528060008152602001600081525090565b905290565b6040518060e00160405280606081526020016060815260200161093c604051806080016040528060006001600160a01b031681526020016060815260200160608152602001600060ff1681525090565b815260408051608081018252600080825260606020838101829052938301819052820152910190815260200160006001600160a01b03168152602001600060020b81526020016108e7604051806040016040528060008152602001600081525090565b60ff811681146109ae57600080fd5b50565b600080600080608085870312156109c757600080fd5b843593506020850135925060408501356109e08161099f565b915060608501356109f08161099f565b939692955090935050565b8151815260208083015190820152604081015b92915050565b6001600160a01b03811681146109ae57600080fd5b600060208284031215610a3b57600080fd5b8135610a4681610a14565b9392505050565b60005b83811015610a68578181015183820152602001610a50565b50506000910152565b60008151808452610a89816020860160208601610a4d565b601f01601f19169290920160200192915050565b6001600160a01b0381511682526000602082015160806020850152610ac56080850182610a71565b905060408301518482036040860152610ade8282610a71565b91505060ff60608401511660608501528091505092915050565b60208152600082516101006020840152610b16610120840182610a71565b90506020840151601f1980858403016040860152610b348383610a71565b92506040860151915080858403016060860152610b518383610a9d565b9250606086015191508085840301608086015250610b6f8282610a9d565b915050608084015160a084015260a084015160c084015260c0840151610ba260e085018280518252602090810151910152565b509392505050565b60208152600082516101006020840152610bc8610120840182610a71565b90506020840151601f1980858403016040860152610be68383610a71565b92506040860151915080858403016060860152610c038383610a9d565b9250606086015191508085840301608086015250610c218282610a9d565b9150506001600160a01b0360808501511660a084015260a0840151610c4b60c085018260020b9052565b5060c0840151805160e08501526020810151610100850152610ba2565b600080600060608486031215610c7d57600080fd5b8335610c8881610a14565b92506020840135610c988161099f565b91506040840135610ca88161099f565b809150509250925092565b634e487b7160e01b600052601160045260246000fd5b600181815b80851115610d04578160001904821115610cea57610cea610cb3565b80851615610cf757918102915b93841c9390800290610cce565b509250929050565b600082610d1b57506001610a0e565b81610d2857506000610a0e565b8160018114610d3e5760028114610d4857610d64565b6001915050610a0e565b60ff841115610d5957610d59610cb3565b50506001821b610a0e565b5060208310610133831016604e8410600b8410161715610d87575081810a610a0e565b610d918383610cc9565b8060001904821115610da557610da5610cb3565b029392505050565b6000610a4660ff841683610d0c565b8082028115828204841417610a0e57610a0e610cb3565b600082610df057634e487b7160e01b600052601260045260246000fd5b500490565b600060208284031215610e0757600080fd5b8151610a4681610a14565b80516dffffffffffffffffffffffffffff81168114610e3057600080fd5b919050565b600080600060608486031215610e4a57600080fd5b610e5384610e12565b9250610e6160208501610e12565b9150604084015163ffffffff81168114610ca857600080fd5b7f556e697377617020563220000000000000000000000000000000000000000000815260008351610eb281600b850160208801610a4d565b602d60f81b600b918401918201528351610ed381600c840160208801610a4d565b01600c01949350505050565b7f554e492d56322d00000000000000000000000000000000000000000000000000815260008351610f17816007850160208801610a4d565b602d60f81b6007918401918201528351610f38816008840160208801610a4d565b01600801949350505050565b805161ffff81168114610e3057600080fd5b600080600080600080600060e0888a031215610f7157600080fd5b8751610f7c81610a14565b8097505060208801518060020b8114610f9457600080fd5b9550610fa260408901610f44565b9450610fb060608901610f44565b9350610fbe60808901610f44565b925060a0880151610fce8161099f565b60c08901519092508015158114610fe457600080fd5b8091505092959891949750929550565b7f556e697377617020563320000000000000000000000000000000000000000000815260008351610eb281600b850160208801610a4d565b7f554e492d56332d00000000000000000000000000000000000000000000000000815260008351610f17816007850160208801610a4d565b634e487b7160e01b600052604160045260246000fd5b60006020828403121561108c57600080fd5b815167ffffffffffffffff808211156110a457600080fd5b818401915084601f8301126110b857600080fd5b8151818111156110ca576110ca611064565b604051601f8201601f19908116603f011681019083821181831017156110f2576110f2611064565b8160405282815287602084870101111561110b57600080fd5b61111c836020830160208801610a4d565b979650505050505050565b60006020828403121561113957600080fd5b8151610a468161099f56fea2646970667358221220a07792534c397f37062ca2ce49fc8ace7c3f772993aba6f6a98759f452e269aa64736f6c63430008180033",
          "opcodes": "PUSH1 0x80 PUSH1 0x40 MSTORE CALLVALUE DUP1 ISZERO PUSH2 0x10 JUMPI PUSH1 0x0 DUP1 REVERT JUMPDEST POP PUSH2 0x117A DUP1 PUSH2 0x20 PUSH1 0x0 CODECOPY PUSH1 0x0 RETURN INVALID PUSH1 0x80 PUSH1 0x40 MSTORE CALLVALUE DUP1 ISZERO PUSH2 0x10 JUMPI PUSH1 0x0 DUP1 REVERT JUMPDEST POP PUSH1 0x4 CALLDATASIZE LT PUSH2 0x66 JUMPI PUSH1 0x0 CALLDATALOAD PUSH1 0xE0 SHR DUP1 PUSH4 0xA294BF7E GT PUSH2 0x50 JUMPI DUP1 PUSH4 0xA294BF7E EQ PUSH2 0xA3 JUMPI DUP1 PUSH4 0xC9F005A6 EQ PUSH2 0xC3 JUMPI DUP1 PUSH4 0xE549539C EQ PUSH2 0xE3 JUMPI PUSH1 0x0 DUP1 REVERT JUMPDEST DUP1 PUSH3 0x819439 EQ PUSH2 0x6B JUMPI DUP1 PUSH4 0x78F6CD57 EQ PUSH2 0x83 JUMPI JUMPDEST PUSH1 0x0 DUP1 REVERT JUMPDEST PUSH1 0x40 DUP1 MLOAD NUMBER DUP2 MSTORE TIMESTAMP PUSH1 0x20 DUP3 ADD MSTORE ADD JUMPDEST PUSH1 0x40 MLOAD DUP1 SWAP2 SUB SWAP1 RETURN JUMPDEST PUSH2 0x96 PUSH2 0x91 CALLDATASIZE PUSH1 0x4 PUSH2 0x9B1 JUMP JUMPDEST PUSH2 0xF6 JUMP JUMPDEST PUSH1 0x40 MLOAD PUSH2 0x7A SWAP2 SWAP1 PUSH2 0x9FB JUMP JUMPDEST PUSH2 0xB6 PUSH2 0xB1 CALLDATASIZE PUSH1 0x4 PUSH2 0xA29 JUMP JUMPDEST PUSH2 0x198 JUMP JUMPDEST PUSH1 0x40 MLOAD PUSH2 0x7A SWAP2 SWAP1 PUSH2 0xAF8 JUMP JUMPDEST PUSH2 0xD6 PUSH2 0xD1 CALLDATASIZE PUSH1 0x4 PUSH2 0xA29 JUMP JUMPDEST PUSH2 0x3D4 JUMP JUMPDEST PUSH1 0x40 MLOAD PUSH2 0x7A SWAP2 SWAP1 PUSH2 0xBAA JUMP JUMPDEST PUSH2 0x96 PUSH2 0xF1 CALLDATASIZE PUSH1 0x4 PUSH2 0xC68 JUMP JUMPDEST PUSH2 0x5F1 JUMP JUMPDEST PUSH1 0x40 DUP1 MLOAD DUP1 DUP3 ADD SWAP1 SWAP2 MSTORE PUSH1 0x0 DUP1 DUP3 MSTORE PUSH1 0x20 DUP3 ADD MSTORE DUP5 ISZERO DUP1 PUSH2 0x115 JUMPI POP DUP4 ISZERO JUMPDEST ISZERO PUSH2 0x134 JUMPI POP PUSH1 0x40 DUP1 MLOAD DUP1 DUP3 ADD SWAP1 SWAP2 MSTORE PUSH1 0x0 DUP1 DUP3 MSTORE PUSH1 0x20 DUP3 ADD MSTORE PUSH2 0x190 JUMP JUMPDEST PUSH1 0x0 DUP5 PUSH2 0x142 DUP5 PUSH1 0xA PUSH2 0xDAD JUMP JUMPDEST PUSH2 0x14C SWAP1 DUP9 PUSH2 0xDBC JUMP JUMPDEST PUSH2 0x156 SWAP2 SWAP1 PUSH2 0xDD3 JUMP JUMPDEST SWAP1 POP PUSH1 0x0 DUP7 PUSH2 0x166 DUP7 PUSH1 0xA PUSH2 0xDAD JUMP JUMPDEST PUSH2 0x170 SWAP1 DUP9 PUSH2 0xDBC JUMP JUMPDEST PUSH2 0x17A SWAP2 SWAP1 PUSH2 0xDD3 JUMP JUMPDEST PUSH1 0x40 DUP1 MLOAD DUP1 DUP3 ADD SWAP1 SWAP2 MSTORE SWAP3 DUP4 MSTORE PUSH1 0x20 DUP4 ADD MSTORE POP SWAP1 POP JUMPDEST SWAP5 SWAP4 POP POP POP POP JUMP JUMPDEST PUSH2 0x1A0 PUSH2 0x840 JUMP JUMPDEST PUSH1 0x0 DUP3 SWAP1 POP PUSH1 0x0 DUP2 PUSH1 0x1 PUSH1 0x1 PUSH1 0xA0 SHL SUB AND PUSH4 0xDFE1681 PUSH1 0x40 MLOAD DUP2 PUSH4 0xFFFFFFFF AND PUSH1 0xE0 SHL DUP2 MSTORE PUSH1 0x4 ADD PUSH1 0x20 PUSH1 0x40 MLOAD DUP1 DUP4 SUB DUP2 DUP7 GAS STATICCALL ISZERO DUP1 ISZERO PUSH2 0x1E5 JUMPI RETURNDATASIZE PUSH1 0x0 DUP1 RETURNDATACOPY RETURNDATASIZE PUSH1 0x0 REVERT JUMPDEST POP POP POP POP PUSH1 0x40 MLOAD RETURNDATASIZE PUSH1 0x1F NOT PUSH1 0x1F DUP3 ADD AND DUP3 ADD DUP1 PUSH1 0x40 MSTORE POP DUP2 ADD SWAP1 PUSH2 0x209 SWAP2 SWAP1 PUSH2 0xDF5 JUMP JUMPDEST SWAP1 POP PUSH1 0x0 DUP3 PUSH1 0x1 PUSH1 0x1 PUSH1 0xA0 SHL SUB AND PUSH4 0xD21220A7 PUSH1 0x40 MLOAD DUP2 PUSH4 0xFFFFFFFF AND PUSH1 0xE0 SHL DUP2 MSTORE PUSH1 0x4 ADD PUSH1 0x20 PUSH1 0x40 MLOAD DUP1 DUP4 SUB DUP2 DUP7 GAS STATICCALL ISZERO DUP1 ISZERO PUSH2 0x24B JUMPI RETURNDATASIZE PUSH1 0x0 DUP1 RETURNDATACOPY RETURNDATASIZE PUSH1 0x0 REVERT JUMPDEST POP POP POP POP PUSH1 0x40 MLOAD RETURNDATASIZE PUSH1 0x1F NOT PUSH1 0x1F DUP3 ADD AND DUP3 ADD DUP1 PUSH1 0x40 MSTORE POP DUP2 ADD SWAP1 PUSH2 0x26F SWAP2 SWAP1 PUSH2 0xDF5 JUMP JUMPDEST SWAP1 POP PUSH1 0x0 DUP1 DUP5 PUSH1 0x1 PUSH1 0x1 PUSH1 0xA0 SHL SUB AND PUSH4 0x902F1AC PUSH1 0x40 MLOAD DUP2 PUSH4 0xFFFFFFFF AND PUSH1 0xE0 SHL DUP2 MSTORE PUSH1 0x4 ADD PUSH1 0x60 PUSH1 0x40 MLOAD DUP1 DUP4 SUB DUP2 DUP7 GAS STATICCALL ISZERO DUP1 ISZERO PUSH2 0x2B2 JUMPI RETURNDATASIZE PUSH1 0x0 DUP1 RETURNDATACOPY RETURNDATASIZE PUSH1 0x0 REVERT JUMPDEST POP POP POP POP PUSH1 0x40 MLOAD RETURNDATASIZE PUSH1 0x1F NOT PUSH1 0x1F DUP3 ADD AND DUP3 ADD DUP1 PUSH1 0x40 MSTORE POP DUP2 ADD SWAP1 PUSH2 0x2D6 SWAP2 SWAP1 PUSH2 0xE35 JUMP JUMPDEST POP SWAP2 POP SWAP2 POP PUSH1 0x0 PUSH2 0x2E6 DUP6 PUSH2 0x6A6 JUMP JUMPDEST SWAP1 POP PUSH1 0x0 PUSH2 0x2F3 DUP6 PUSH2 0x6A6 JUMP JUMPDEST SWAP1 POP PUSH1 0x0 PUSH2 0x32B DUP6 PUSH14 0xFFFFFFFFFFFFFFFFFFFFFFFFFFFF AND DUP6 PUSH14 0xFFFFFFFFFFFFFFFFFFFFFFFFFFFF AND DUP6 PUSH1 0x60 ADD MLOAD DUP6 PUSH1 0x60 ADD MLOAD PUSH2 0xF6 JUMP JUMPDEST SWAP1 POP PUSH1 0x0 DUP4 PUSH1 0x40 ADD MLOAD DUP4 PUSH1 0x40 ADD MLOAD PUSH1 0x40 MLOAD PUSH1 0x20 ADD PUSH2 0x34A SWAP3 SWAP2 SWAP1 PUSH2 0xE7A JUMP JUMPDEST PUSH1 0x40 MLOAD PUSH1 0x20 DUP2 DUP4 SUB SUB DUP2 MSTORE SWAP1 PUSH1 0x40 MSTORE SWAP1 POP PUSH1 0x0 DUP5 PUSH1 0x40 ADD MLOAD DUP5 PUSH1 0x40 ADD MLOAD PUSH1 0x40 MLOAD PUSH1 0x20 ADD PUSH2 0x378 SWAP3 SWAP2 SWAP1 PUSH2 0xEDF JUMP JUMPDEST PUSH1 0x40 DUP1 MLOAD PUSH1 0x1F NOT DUP2 DUP5 SUB ADD DUP2 MSTORE PUSH1 0xE0 DUP4 ADD DUP3 MSTORE SWAP4 DUP3 MSTORE PUSH1 0x20 DUP3 ADD SWAP4 SWAP1 SWAP4 MSTORE SWAP2 DUP3 ADD SWAP5 SWAP1 SWAP5 MSTORE PUSH1 0x60 DUP2 ADD SWAP3 SWAP1 SWAP3 MSTORE PUSH14 0xFFFFFFFFFFFFFFFFFFFFFFFFFFFF SWAP5 DUP6 AND PUSH1 0x80 DUP4 ADD MSTORE SWAP3 SWAP1 SWAP4 AND PUSH1 0xA0 DUP5 ADD MSTORE POP PUSH1 0xC0 DUP3 ADD MSTORE SWAP6 SWAP5 POP POP POP POP POP JUMP JUMPDEST PUSH2 0x3DC PUSH2 0x8EC JUMP JUMPDEST PUSH1 0x0 DUP3 SWAP1 POP PUSH1 0x0 DUP2 PUSH1 0x1 PUSH1 0x1 PUSH1 0xA0 SHL SUB AND PUSH4 0xDFE1681 PUSH1 0x40 MLOAD DUP2 PUSH4 0xFFFFFFFF AND PUSH1 0xE0 SHL DUP2 MSTORE PUSH1 0x4 ADD PUSH1 0x20 PUSH1 0x40 MLOAD DUP1 DUP4 SUB DUP2 DUP7 GAS STATICCALL ISZERO DUP1 ISZERO PUSH2 0x421 JUMPI RETURNDATASIZE PUSH1 0x0 DUP1 RETURNDATACOPY RETURNDATASIZE PUSH1 0x0 REVERT JUMPDEST POP POP POP POP PUSH1 0x40 MLOAD RETURNDATASIZE PUSH1 0x1F NOT PUSH1 0x1F DUP3 ADD AND DUP3 ADD DUP1 PUSH1 0x40 MSTORE POP DUP2 ADD SWAP1 PUSH2 0x445 SWAP2 SWAP1 PUSH2 0xDF5 JUMP JUMPDEST SWAP1 POP PUSH1 0x0 DUP3 PUSH1 0x1 PUSH1 0x1 PUSH1 0xA0 SHL SUB AND PUSH4 0xD21220A7 PUSH1 0x40 MLOAD DUP2 PUSH4 0xFFFFFFFF AND PUSH1 0xE0 SHL DUP2 MSTORE PUSH1 0x4 ADD PUSH1 0x20 PUSH1 0x40 MLOAD DUP1 DUP4 SUB DUP2 DUP7 GAS STATICCALL ISZERO DUP1 ISZERO PUSH2 0x487 JUMPI RETURNDATASIZE PUSH1 0x0 DUP1 RETURNDATACOPY RETURNDATASIZE PUSH1 0x0 REVERT JUMPDEST POP POP POP POP PUSH1 0x40 MLOAD RETURNDATASIZE PUSH1 0x1F NOT PUSH1 0x1F DUP3 ADD AND DUP3 ADD DUP1 PUSH1 0x40 MSTORE POP DUP2 ADD SWAP1 PUSH2 0x4AB SWAP2 SWAP1 PUSH2 0xDF5 JUMP JUMPDEST SWAP1 POP PUSH1 0x0 DUP1 DUP5 PUSH1 0x1 PUSH1 0x1 PUSH1 0xA0 SHL SUB AND PUSH4 0x3850C7BD PUSH1 0x40 MLOAD DUP2 PUSH4 0xFFFFFFFF AND PUSH1 0xE0 SHL DUP2 MSTORE PUSH1 0x4 ADD PUSH1 0xE0 PUSH1 0x40 MLOAD DUP1 DUP4 SUB DUP2 DUP7 GAS STATICCALL ISZERO DUP1 ISZERO PUSH2 0x4EE JUMPI RETURNDATASIZE PUSH1 0x0 DUP1 RETURNDATACOPY RETURNDATASIZE PUSH1 0x0 REVERT JUMPDEST POP POP POP POP PUSH1 0x40 MLOAD RETURNDATASIZE PUSH1 0x1F NOT PUSH1 0x1F DUP3 ADD AND DUP3 ADD DUP1 PUSH1 0x40 MSTORE POP DUP2 ADD SWAP1 PUSH2 0x512 SWAP2 SWAP1 PUSH2 0xF56 JUMP JUMPDEST POP POP POP POP POP SWAP2 POP SWAP2 POP PUSH1 0x0 PUSH2 0x526 DUP6 PUSH2 0x6A6 JUMP JUMPDEST SWAP1 POP PUSH1 0x0 PUSH2 0x533 DUP6 PUSH2 0x6A6 JUMP JUMPDEST SWAP1 POP PUSH1 0x0 PUSH2 0x54A DUP6 DUP5 PUSH1 0x60 ADD MLOAD DUP5 PUSH1 0x60 ADD MLOAD PUSH2 0x5F1 JUMP JUMPDEST SWAP1 POP PUSH1 0x0 DUP4 PUSH1 0x40 ADD MLOAD DUP4 PUSH1 0x40 ADD MLOAD PUSH1 0x40 MLOAD PUSH1 0x20 ADD PUSH2 0x569 SWAP3 SWAP2 SWAP1 PUSH2 0xFF4 JUMP JUMPDEST PUSH1 0x40 MLOAD PUSH1 0x20 DUP2 DUP4 SUB SUB DUP2 MSTORE SWAP1 PUSH1 0x40 MSTORE SWAP1 POP PUSH1 0x0 DUP5 PUSH1 0x40 ADD MLOAD DUP5 PUSH1 0x40 ADD MLOAD PUSH1 0x40 MLOAD PUSH1 0x20 ADD PUSH2 0x597 SWAP3 SWAP2 SWAP1 PUSH2 0x102C JUMP JUMPDEST PUSH1 0x40 DUP1 MLOAD PUSH1 0x1F NOT DUP2 DUP5 SUB ADD DUP2 MSTORE PUSH1 0xE0 DUP4 ADD DUP3 MSTORE SWAP4 DUP3 MSTORE PUSH1 0x20 DUP3 ADD SWAP4 SWAP1 SWAP4 MSTORE SWAP2 DUP3 ADD SWAP5 SWAP1 SWAP5 MSTORE PUSH1 0x60 DUP2 ADD SWAP3 SWAP1 SWAP3 MSTORE PUSH1 0x1 PUSH1 0x1 PUSH1 0xA0 SHL SUB SWAP1 SWAP5 AND PUSH1 0x80 DUP3 ADD MSTORE PUSH1 0x2 SWAP3 SWAP1 SWAP3 SIGNEXTEND PUSH1 0xA0 DUP4 ADD MSTORE POP PUSH1 0xC0 DUP2 ADD SWAP2 SWAP1 SWAP2 MSTORE SWAP6 SWAP5 POP POP POP POP POP JUMP JUMPDEST PUSH1 0x40 DUP1 MLOAD DUP1 DUP3 ADD SWAP1 SWAP2 MSTORE PUSH1 0x0 DUP1 DUP3 MSTORE PUSH1 0x20 DUP3 ADD MSTORE PUSH1 0x0 PUSH1 0x1 PUSH1 0xC0 SHL PUSH2 0x617 DUP6 PUSH1 0xA PUSH2 0xDAD JUMP JUMPDEST PUSH2 0x62A PUSH1 0x1 PUSH1 0x1 PUSH1 0xA0 SHL SUB DUP9 AND DUP1 PUSH2 0xDBC JUMP JUMPDEST PUSH2 0x634 SWAP2 SWAP1 PUSH2 0xDBC JUMP JUMPDEST PUSH2 0x63E SWAP2 SWAP1 PUSH2 0xDD3 JUMP JUMPDEST SWAP1 POP PUSH1 0x0 DUP2 ISZERO PUSH2 0x685 JUMPI PUSH2 0x65B PUSH1 0x1 PUSH1 0x1 PUSH1 0xA0 SHL SUB DUP8 AND DUP1 PUSH2 0xDBC JUMP JUMPDEST PUSH2 0x666 DUP6 PUSH1 0xA PUSH2 0xDAD JUMP JUMPDEST PUSH2 0x674 SWAP1 PUSH1 0x1 PUSH1 0xC0 SHL PUSH2 0xDBC JUMP JUMPDEST PUSH2 0x67E SWAP2 SWAP1 PUSH2 0xDD3 JUMP JUMPDEST SWAP1 POP PUSH2 0x689 JUMP JUMPDEST POP PUSH1 0x0 JUMPDEST PUSH1 0x40 DUP1 MLOAD DUP1 DUP3 ADD SWAP1 SWAP2 MSTORE SWAP1 DUP2 MSTORE PUSH1 0x20 DUP2 ADD SWAP2 SWAP1 SWAP2 MSTORE SWAP5 SWAP4 POP POP POP POP JUMP JUMPDEST PUSH2 0x6DD PUSH1 0x40 MLOAD DUP1 PUSH1 0x80 ADD PUSH1 0x40 MSTORE DUP1 PUSH1 0x0 PUSH1 0x1 PUSH1 0x1 PUSH1 0xA0 SHL SUB AND DUP2 MSTORE PUSH1 0x20 ADD PUSH1 0x60 DUP2 MSTORE PUSH1 0x20 ADD PUSH1 0x60 DUP2 MSTORE PUSH1 0x20 ADD PUSH1 0x0 PUSH1 0xFF AND DUP2 MSTORE POP SWAP1 JUMP JUMPDEST PUSH1 0x0 DUP3 SWAP1 POP PUSH1 0x40 MLOAD DUP1 PUSH1 0x80 ADD PUSH1 0x40 MSTORE DUP1 DUP5 PUSH1 0x1 PUSH1 0x1 PUSH1 0xA0 SHL SUB AND DUP2 MSTORE PUSH1 0x20 ADD DUP3 PUSH1 0x1 PUSH1 0x1 PUSH1 0xA0 SHL SUB AND PUSH4 0x6FDDE03 PUSH1 0x40 MLOAD DUP2 PUSH4 0xFFFFFFFF AND PUSH1 0xE0 SHL DUP2 MSTORE PUSH1 0x4 ADD PUSH1 0x0 PUSH1 0x40 MLOAD DUP1 DUP4 SUB DUP2 DUP7 GAS STATICCALL ISZERO DUP1 ISZERO PUSH2 0x73A JUMPI RETURNDATASIZE PUSH1 0x0 DUP1 RETURNDATACOPY RETURNDATASIZE PUSH1 0x0 REVERT JUMPDEST POP POP POP POP PUSH1 0x40 MLOAD RETURNDATASIZE PUSH1 0x0 DUP3 RETURNDATACOPY PUSH1 0x1F RETURNDATASIZE SWAP1 DUP2 ADD PUSH1 0x1F NOT AND DUP3 ADD PUSH1 0x40 MSTORE PUSH2 0x762 SWAP2 SWAP1 DUP2 ADD SWAP1 PUSH2 0x107A JUMP JUMPDEST DUP2 MSTORE PUSH1 0x20 ADD DUP3 PUSH1 0x1 PUSH1 0x1 PUSH1 0xA0 SHL SUB AND PUSH4 0x95D89B41 PUSH1 0x40 MLOAD DUP2 PUSH4 0xFFFFFFFF AND PUSH1 0xE0 SHL DUP2 MSTORE PUSH1 0x4 ADD PUSH1 0x0 PUSH1 0x40 MLOAD DUP1 DUP4 SUB DUP2 DUP7 GAS STATICCALL ISZERO DUP1 ISZERO PUSH2 0x7A5 JUMPI RETURNDATASIZE PUSH1 0x0 DUP1 RETURNDATACOPY RETURNDATASIZE PUSH1 0x0 REVERT JUMPDEST POP POP POP POP PUSH1 0x40 MLOAD RETURNDATASIZE PUSH1 0x0 DUP3 RETURNDATACOPY PUSH1 0x1F RETURNDATASIZE SWAP1 DUP2 ADD PUSH1 0x1F NOT AND DUP3 ADD PUSH1 0x40 MSTORE PUSH2 0x7CD SWAP2 SWAP1 DUP2 ADD SWAP1 PUSH2 0x107A JUMP JUMPDEST DUP2 MSTORE PUSH1 0x20 ADD DUP3 PUSH1 0x1 PUSH1 0x1 PUSH1 0xA0 SHL SUB AND PUSH4 0x313CE567 PUSH1 0x40 MLOAD DUP2 PUSH4 0xFFFFFFFF AND PUSH1 0xE0 SHL DUP2 MSTORE PUSH1 0x4 ADD PUSH1 0x20 PUSH1 0x40 MLOAD DUP1 DUP4 SUB DUP2 DUP7 GAS STATICCALL ISZERO DUP1 ISZERO PUSH2 0x810 JUMPI RETURNDATASIZE PUSH1 0x0 DUP1 RETURNDATACOPY RETURNDATASIZE PUSH1 0x0 REVERT JUMPDEST POP POP POP POP PUSH1 0x40 MLOAD RETURNDATASIZE PUSH1 0x1F NOT PUSH1 0x1F DUP3 ADD AND DUP3 ADD DUP1 PUSH1 0x40 MSTORE POP DUP2 ADD SWAP1 PUSH2 0x834 SWAP2 SWAP1 PUSH2 0x1127 JUMP JUMPDEST PUSH1 0xFF AND SWAP1 MSTORE SWAP4 SWAP3 POP POP POP JUMP JUMPDEST PUSH1 0x40 MLOAD DUP1 PUSH1 0xE0 ADD PUSH1 0x40 MSTORE DUP1 PUSH1 0x60 DUP2 MSTORE PUSH1 0x20 ADD PUSH1 0x60 DUP2 MSTORE PUSH1 0x20 ADD PUSH2 0x890 PUSH1 0x40 MLOAD DUP1 PUSH1 0x80 ADD PUSH1 0x40 MSTORE DUP1 PUSH1 0x0 PUSH1 0x1 PUSH1 0x1 PUSH1 0xA0 SHL SUB AND DUP2 MSTORE PUSH1 0x20 ADD PUSH1 0x60 DUP2 MSTORE PUSH1 0x20 ADD PUSH1 0x60 DUP2 MSTORE PUSH1 0x20 ADD PUSH1 0x0 PUSH1 0xFF AND DUP2 MSTORE POP SWAP1 JUMP JUMPDEST DUP2 MSTORE PUSH1 0x40 DUP1 MLOAD PUSH1 0x80 DUP2 ADD DUP3 MSTORE PUSH1 0x0 DUP1 DUP3 MSTORE PUSH1 0x60 PUSH1 0x20 DUP4 DUP2 ADD DUP3 SWAP1 MSTORE SWAP4 DUP4 ADD DUP2 SWAP1 MSTORE DUP3 ADD MSTORE SWAP2 ADD SWAP1 DUP2 MSTORE PUSH1 0x20 ADD PUSH1 0x0 DUP2 MSTORE PUSH1 0x20 ADD PUSH1 0x0 DUP2 MSTORE PUSH1 0x20 ADD PUSH2 0x8E7 PUSH1 0x40 MLOAD DUP1 PUSH1 0x40 ADD PUSH1 0x40 MSTORE DUP1 PUSH1 0x0 DUP2 MSTORE PUSH1 0x20 ADD PUSH1 0x0 DUP2 MSTORE POP SWAP1 JUMP JUMPDEST SWAP1 MSTORE SWAP1 JUMP JUMPDEST PUSH1 0x40 MLOAD DUP1 PUSH1 0xE0 ADD PUSH1 0x40 MSTORE DUP1 PUSH1 0x60 DUP2 MSTORE PUSH1 0x20 ADD PUSH1 0x60 DUP2 MSTORE PUSH1 0x20 ADD PUSH2 0x93C PUSH1 0x40 MLOAD DUP1 PUSH1 0x80 ADD PUSH1 0x40 MSTORE DUP1 PUSH1 0x0 PUSH1 0x1 PUSH1 0x1 PUSH1 0xA0 SHL SUB AND DUP2 MSTORE PUSH1 0x20 ADD PUSH1 0x60 DUP2 MSTORE PUSH1 0x20 ADD PUSH1 0x60 DUP2 MSTORE PUSH1 0x20 ADD PUSH1 0x0 PUSH1 0xFF AND DUP2 MSTORE POP SWAP1 JUMP JUMPDEST DUP2 MSTORE PUSH1 0x40 DUP1 MLOAD PUSH1 0x80 DUP2 ADD DUP3 MSTORE PUSH1 0x0 DUP1 DUP3 MSTORE PUSH1 0x60 PUSH1 0x20 DUP4 DUP2 ADD DUP3 SWAP1 MSTORE SWAP4 DUP4 ADD DUP2 SWAP1 MSTORE DUP3 ADD MSTORE SWAP2 ADD SWAP1 DUP2 MSTORE PUSH1 0x20 ADD PUSH1 0x0 PUSH1 0x1 PUSH1 0x1 PUSH1 0xA0 SHL SUB AND DUP2 MSTORE PUSH1 0x20 ADD PUSH1 0x0 PUSH1 0x2 SIGNEXTEND DUP2 MSTORE PUSH1 0x20 ADD PUSH2 0x8E7 PUSH1 0x40 MLOAD DUP1 PUSH1 0x40 ADD PUSH1 0x40 MSTORE DUP1 PUSH1 0x0 DUP2 MSTORE PUSH1 0x20 ADD PUSH1 0x0 DUP2 MSTORE POP SWAP1 JUMP JUMPDEST PUSH1 0xFF DUP2 AND DUP2 EQ PUSH2 0x9AE JUMPI PUSH1 0x0 DUP1 REVERT JUMPDEST POP JUMP JUMPDEST PUSH1 0x0 DUP1 PUSH1 0x0 DUP1 PUSH1 0x80 DUP6 DUP8 SUB SLT ISZERO PUSH2 0x9C7 JUMPI PUSH1 0x0 DUP1 REVERT JUMPDEST DUP5 CALLDATALOAD SWAP4 POP PUSH1 0x20 DUP6 ADD CALLDATALOAD SWAP3 POP PUSH1 0x40 DUP6 ADD CALLDATALOAD PUSH2 0x9E0 DUP2 PUSH2 0x99F JUMP JUMPDEST SWAP2 POP PUSH1 0x60 DUP6 ADD CALLDATALOAD PUSH2 0x9F0 DUP2 PUSH2 0x99F JUMP JUMPDEST SWAP4 SWAP7 SWAP3 SWAP6 POP SWAP1 SWAP4 POP POP JUMP JUMPDEST DUP2 MLOAD DUP2 MSTORE PUSH1 0x20 DUP1 DUP4 ADD MLOAD SWAP1 DUP3 ADD MSTORE PUSH1 0x40 DUP2 ADD JUMPDEST SWAP3 SWAP2 POP POP JUMP JUMPDEST PUSH1 0x1 PUSH1 0x1 PUSH1 0xA0 SHL SUB DUP2 AND DUP2 EQ PUSH2 0x9AE JUMPI PUSH1 0x0 DUP1 REVERT JUMPDEST PUSH1 0x0 PUSH1 0x20 DUP3 DUP5 SUB SLT ISZERO PUSH2 0xA3B JUMPI PUSH1 0x0 DUP1 REVERT JUMPDEST DUP2 CALLDATALOAD PUSH2 0xA46 DUP2 PUSH2 0xA14 JUMP JUMPDEST SWAP4 SWAP3 POP POP POP JUMP JUMPDEST PUSH1 0x0 JUMPDEST DUP4 DUP2 LT ISZERO PUSH2 0xA68 JUMPI DUP2 DUP2 ADD MLOAD DUP4 DUP3 ADD MSTORE PUSH1 0x20 ADD PUSH2 0xA50 JUMP JUMPDEST POP POP PUSH1 0x0 SWAP2 ADD MSTORE JUMP JUMPDEST PUSH1 0x0 DUP2 MLOAD DUP1 DUP5 MSTORE PUSH2 0xA89 DUP2 PUSH1 0x20 DUP7 ADD PUSH1 0x20 DUP7 ADD PUSH2 0xA4D JUMP JUMPDEST PUSH1 0x1F ADD PUSH1 0x1F NOT AND SWAP3 SWAP1 SWAP3 ADD PUSH1 0x20 ADD SWAP3 SWAP2 POP POP JUMP JUMPDEST PUSH1 0x1 PUSH1 0x1 PUSH1 0xA0 SHL SUB DUP2 MLOAD AND DUP3 MSTORE PUSH1 0x0 PUSH1 0x20 DUP3 ADD MLOAD PUSH1 0x80 PUSH1 0x20 DUP6 ADD MSTORE PUSH2 0xAC5 PUSH1 0x80 DUP6 ADD DUP3 PUSH2 0xA71 JUMP JUMPDEST SWAP1 POP PUSH1 0x40 DUP4 ADD MLOAD DUP5 DUP3 SUB PUSH1 0x40 DUP7 ADD MSTORE PUSH2 0xADE DUP3 DUP3 PUSH2 0xA71 JUMP JUMPDEST SWAP2 POP POP PUSH1 0xFF PUSH1 0x60 DUP5 ADD MLOAD AND PUSH1 0x60 DUP6 ADD MSTORE DUP1 SWAP2 POP POP SWAP3 SWAP2 POP POP JUMP JUMPDEST PUSH1 0x20 DUP2 MSTORE PUSH1 0x0 DUP3 MLOAD PUSH2 0x100 PUSH1 0x20 DUP5 ADD MSTORE PUSH2 0xB16 PUSH2 0x120 DUP5 ADD DUP3 PUSH2 0xA71 JUMP JUMPDEST SWAP1 POP PUSH1 0x20 DUP5 ADD MLOAD PUSH1 0x1F NOT DUP1 DUP6 DUP5 SUB ADD PUSH1 0x40 DUP7 ADD MSTORE PUSH2 0xB34 DUP4 DUP4 PUSH2 0xA71 JUMP JUMPDEST SWAP3 POP PUSH1 0x40 DUP7 ADD MLOAD SWAP2 POP DUP1 DUP6 DUP5 SUB ADD PUSH1 0x60 DUP7 ADD MSTORE PUSH2 0xB51 DUP4 DUP4 PUSH2 0xA9D JUMP JUMPDEST SWAP3 POP PUSH1 0x60 DUP7 ADD MLOAD SWAP2 POP DUP1 DUP6 DUP5 SUB ADD PUSH1 0x80 DUP7 ADD MSTORE POP PUSH2 0xB6F DUP3 DUP3 PUSH2 0xA9D JUMP JUMPDEST SWAP2 POP POP PUSH1 0x80 DUP5 ADD MLOAD PUSH1 0xA0 DUP5 ADD MSTORE PUSH1 0xA0 DUP5 ADD MLOAD PUSH1 0xC0 DUP5 ADD MSTORE PUSH1 0xC0 DUP5 ADD MLOAD PUSH2 0xBA2 PUSH1 0xE0 DUP6 ADD DUP3 DUP1 MLOAD DUP3 MSTORE PUSH1 0x20 SWAP1 DUP2 ADD MLOAD SWAP2 ADD MSTORE JUMP JUMPDEST POP SWAP4 SWAP3 POP POP POP JUMP JUMPDEST PUSH1 0x20 DUP2 MSTORE PUSH1 0x0 DUP3 MLOAD PUSH2 0x100 PUSH1 0x20 DUP5 ADD MSTORE PUSH2 0xBC8 PUSH2 0x120 DUP5 ADD DUP3 PUSH2 0xA71 JUMP JUMPDEST SWAP1 POP PUSH1 0x20 DUP5 ADD MLOAD PUSH1 0x1F NOT DUP1 DUP6 DUP5 SUB ADD PUSH1 0x40 DUP7 ADD MSTORE PUSH2 0xBE6 DUP4 DUP4 PUSH2 0xA71 JUMP JUMPDEST SWAP3 POP PUSH1 0x40 DUP7 ADD MLOAD SWAP2 POP DUP1 DUP6 DUP5 SUB ADD PUSH1 0x60 DUP7 ADD MSTORE PUSH2 0xC03 DUP4 DUP4 PUSH2 0xA9D JUMP JUMPDEST SWAP3 POP PUSH1 0x60 DUP7 ADD MLOAD SWAP2 POP DUP1 DUP6 DUP5 SUB ADD PUSH1 0x80 DUP7 ADD MSTORE POP PUSH2 0xC21 DUP3 DUP3 PUSH2 0xA9D JUMP JUMPDEST SWAP2 POP POP PUSH1 0x1 PUSH1 0x1 PUSH1 0xA0 SHL SUB PUSH1 0x80 DUP6 ADD MLOAD AND PUSH1 0xA0 DUP5 ADD MSTORE PUSH1 0xA0 DUP5 ADD MLOAD PUSH2 0xC4B PUSH1 0xC0 DUP6 ADD DUP3 PUSH1 0x2 SIGNEXTEND SWAP1 MSTORE JUMP JUMPDEST POP PUSH1 0xC0 DUP5 ADD MLOAD DUP1 MLOAD PUSH1 0xE0 DUP6 ADD MSTORE PUSH1 0x20 DUP2 ADD MLOAD PUSH2 0x100 DUP6 ADD MSTORE PUSH2 0xBA2 JUMP JUMPDEST PUSH1 0x0 DUP1 PUSH1 0x0 PUSH1 0x60 DUP5 DUP7 SUB SLT ISZERO PUSH2 0xC7D JUMPI PUSH1 0x0 DUP1 REVERT JUMPDEST DUP4 CALLDATALOAD PUSH2 0xC88 DUP2 PUSH2 0xA14 JUMP JUMPDEST SWAP3 POP PUSH1 0x20 DUP5 ADD CALLDATALOAD PUSH2 0xC98 DUP2 PUSH2 0x99F JUMP JUMPDEST SWAP2 POP PUSH1 0x40 DUP5 ADD CALLDATALOAD PUSH2 0xCA8 DUP2 PUSH2 0x99F JUMP JUMPDEST DUP1 SWAP2 POP POP SWAP3 POP SWAP3 POP SWAP3 JUMP JUMPDEST PUSH4 0x4E487B71 PUSH1 0xE0 SHL PUSH1 0x0 MSTORE PUSH1 0x11 PUSH1 0x4 MSTORE PUSH1 0x24 PUSH1 0x0 REVERT JUMPDEST PUSH1 0x1 DUP2 DUP2 JUMPDEST DUP1 DUP6 GT ISZERO PUSH2 0xD04 JUMPI DUP2 PUSH1 0x0 NOT DIV DUP3 GT ISZERO PUSH2 0xCEA JUMPI PUSH2 0xCEA PUSH2 0xCB3 JUMP JUMPDEST DUP1 DUP6 AND ISZERO PUSH2 0xCF7 JUMPI SWAP2 DUP2 MUL SWAP2 JUMPDEST SWAP4 DUP5 SHR SWAP4 SWAP1 DUP1 MUL SWAP1 PUSH2 0xCCE JUMP JUMPDEST POP SWAP3 POP SWAP3 SWAP1 POP JUMP JUMPDEST PUSH1 0x0 DUP3 PUSH2 0xD1B JUMPI POP PUSH1 0x1 PUSH2 0xA0E JUMP JUMPDEST DUP2 PUSH2 0xD28 JUMPI POP PUSH1 0x0 PUSH2 0xA0E JUMP JUMPDEST DUP2 PUSH1 0x1 DUP2 EQ PUSH2 0xD3E JUMPI PUSH1 0x2 DUP2 EQ PUSH2 0xD48 JUMPI PUSH2 0xD64 JUMP JUMPDEST PUSH1 0x1 SWAP2 POP POP PUSH2 0xA0E JUMP JUMPDEST PUSH1 0xFF DUP5 GT ISZERO PUSH2 0xD59 JUMPI PUSH2 0xD59 PUSH2 0xCB3 JUMP JUMPDEST POP POP PUSH1 0x1 DUP3 SHL PUSH2 0xA0E JUMP JUMPDEST POP PUSH1 0x20 DUP4 LT PUSH2 0x133 DUP4 LT AND PUSH1 0x4E DUP5 LT PUSH1 0xB DUP5 LT AND OR ISZERO PUSH2 0xD87 JUMPI POP DUP2 DUP2 EXP PUSH2 0xA0E JUMP JUMPDEST PUSH2 0xD91 DUP4 DUP4 PUSH2 0xCC9 JUMP JUMPDEST DUP1 PUSH1 0x0 NOT DIV DUP3 GT ISZERO PUSH2 0xDA5 JUMPI PUSH2 0xDA5 PUSH2 0xCB3 JUMP JUMPDEST MUL SWAP4 SWAP3 POP POP POP JUMP JUMPDEST PUSH1 0x0 PUSH2 0xA46 PUSH1 0xFF DUP5 AND DUP4 PUSH2 0xD0C JUMP JUMPDEST DUP1 DUP3 MUL DUP2 ISZERO DUP3 DUP3 DIV DUP5 EQ OR PUSH2 0xA0E JUMPI PUSH2 0xA0E PUSH2 0xCB3 JUMP JUMPDEST PUSH1 0x0 DUP3 PUSH2 0xDF0 JUMPI PUSH4 0x4E487B71 PUSH1 0xE0 SHL PUSH1 0x0 MSTORE PUSH1 0x12 PUSH1 0x4 MSTORE PUSH1 0x24 PUSH1 0x0 REVERT JUMPDEST POP DIV SWAP1 JUMP JUMPDEST PUSH1 0x0 PUSH1 0x20 DUP3 DUP5 SUB SLT ISZERO PUSH2 0xE07 JUMPI PUSH1 0x0 DUP1 REVERT JUMPDEST DUP2 MLOAD PUSH2 0xA46 DUP2 PUSH2 0xA14 JUMP JUMPDEST DUP1 MLOAD PUSH14 0xFFFFFFFFFFFFFFFFFFFFFFFFFFFF DUP2 AND DUP2 EQ PUSH2 0xE30 JUMPI PUSH1 0x0 DUP1 REVERT JUMPDEST SWAP2 SWAP1 POP JUMP JUMPDEST PUSH1 0x0 DUP1 PUSH1 0x0 PUSH1 0x60 DUP5 DUP7 SUB SLT ISZERO PUSH2 0xE4A JUMPI PUSH1 0x0 DUP1 REVERT JUMPDEST PUSH2 0xE53 DUP5 PUSH2 0xE12 JUMP JUMPDEST SWAP3 POP PUSH2 0xE61 PUSH1 0x20 DUP6 ADD PUSH2 0xE12 JUMP JUMPDEST SWAP2 POP PUSH1 0x40 DUP5 ADD MLOAD PUSH4 0xFFFFFFFF DUP2 AND DUP2 EQ PUSH2 0xCA8 JUMPI PUSH1 0x0 DUP1 REVERT JUMPDEST PUSH32 0x556E697377617020563220000000000000000000000000000000000000000000 DUP2 MSTORE PUSH1 0x0 DUP4 MLOAD PUSH2 0xEB2 DUP2 PUSH1 0xB DUP6 ADD PUSH1 0x20 DUP9 ADD PUSH2 0xA4D JUMP JUMPDEST PUSH1 0x2D PUSH1 0xF8 SHL PUSH1 0xB SWAP2 DUP5 ADD SWAP2 DUP3 ADD MSTORE DUP4 MLOAD PUSH2 0xED3 DUP2 PUSH1 0xC DUP5 ADD PUSH1 0x20 DUP9 ADD PUSH2 0xA4D JUMP JUMPDEST ADD PUSH1 0xC ADD SWAP5 SWAP4 POP POP POP POP JUMP JUMPDEST PUSH32 0x554E492D56322D00000000000000000000000000000000000000000000000000 DUP2 MSTORE PUSH1 0x0 DUP4 MLOAD PUSH2 0xF17 DUP2 PUSH1 0x7 DUP6 ADD PUSH1 0x20 DUP9 ADD PUSH2 0xA4D JUMP JUMPDEST PUSH1 0x2D PUSH1 0xF8 SHL PUSH1 0x7 SWAP2 DUP5 ADD SWAP2 DUP3 ADD MSTORE DUP4 MLOAD PUSH2 0xF38 DUP2 PUSH1 0x8 DUP5 ADD PUSH1 0x20 DUP9 ADD PUSH2 0xA4D JUMP JUMPDEST ADD PUSH1 0x8 ADD SWAP5 SWAP4 POP POP POP POP JUMP JUMPDEST DUP1 MLOAD PUSH2 0xFFFF DUP2 AND DUP2 EQ PUSH2 0xE30 JUMPI PUSH1 0x0 DUP1 REVERT JUMPDEST PUSH1 0x0 DUP1 PUSH1 0x0 DUP1 PUSH1 0x0 DUP1 PUSH1 0x0 PUSH1 0xE0 DUP9 DUP11 SUB SLT ISZERO PUSH2 0xF71 JUMPI PUSH1 0x0 DUP1 REVERT JUMPDEST DUP8 MLOAD PUSH2 0xF7C DUP2 PUSH2 0xA14 JUMP JUMPDEST DUP1 SWAP8 POP POP PUSH1 0x20 DUP9 ADD MLOAD DUP1 PUSH1 0x2 SIGNEXTEND DUP2 EQ PUSH2 0xF94 JUMPI PUSH1 0x0 DUP1 REVERT JUMPDEST SWAP6 POP PUSH2 0xFA2 PUSH1 0x40 DUP10 ADD PUSH2 0xF44 JUMP JUMPDEST SWAP5 POP PUSH2 0xFB0 PUSH1 0x60 DUP10 ADD PUSH2 0xF44 JUMP JUMPDEST SWAP4 POP PUSH2 0xFBE PUSH1 0x80 DUP10 ADD PUSH2 0xF44 JUMP JUMPDEST SWAP3 POP PUSH1 0xA0 DUP9 ADD MLOAD PUSH2 0xFCE DUP2 PUSH2 0x99F JUMP JUMPDEST PUSH1 0xC0 DUP10 ADD MLOAD SWAP1 SWAP3 POP DUP1 ISZERO ISZERO DUP2 EQ PUSH2 0xFE4 JUMPI PUSH1 0x0 DUP1 REVERT JUMPDEST DUP1 SWAP2 POP POP SWAP3 SWAP6 SWAP9 SWAP2 SWAP5 SWAP8 POP SWAP3 SWAP6 POP JUMP JUMPDEST PUSH32 0x556E697377617020563320000000000000000000000000000000000000000000 DUP2 MSTORE PUSH1 0x0 DUP4 MLOAD PUSH2 0xEB2 DUP2 PUSH1 0xB DUP6 ADD PUSH1 0x20 DUP9 ADD PUSH2 0xA4D JUMP JUMPDEST PUSH32 0x554E492D56332D00000000000000000000000000000000000000000000000000 DUP2 MSTORE PUSH1 0x0 DUP4 MLOAD PUSH2 0xF17 DUP2 PUSH1 0x7 DUP6 ADD PUSH1 0x20 DUP9 ADD PUSH2 0xA4D JUMP JUMPDEST PUSH4 0x4E487B71 PUSH1 0xE0 SHL PUSH1 0x0 MSTORE PUSH1 0x41 PUSH1 0x4 MSTORE PUSH1 0x24 PUSH1 0x0 REVERT JUMPDEST PUSH1 0x0 PUSH1 0x20 DUP3 DUP5 SUB SLT ISZERO PUSH2 0x108C JUMPI PUSH1 0x0 DUP1 REVERT JUMPDEST DUP2 MLOAD PUSH8 0xFFFFFFFFFFFFFFFF DUP1 DUP3 GT ISZERO PUSH2 0x10A4 JUMPI PUSH1 0x0 DUP1 REVERT JUMPDEST DUP2 DUP5 ADD SWAP2 POP DUP5 PUSH1 0x1F DUP4 ADD SLT PUSH2 0x10B8 JUMPI PUSH1 0x0 DUP1 REVERT JUMPDEST DUP2 MLOAD DUP2 DUP2 GT ISZERO PUSH2 0x10CA JUMPI PUSH2 0x10CA PUSH2 0x1064 JUMP JUMPDEST PUSH1 0x40 MLOAD PUSH1 0x1F DUP3 ADD PUSH1 0x1F NOT SWAP1 DUP2 AND PUSH1 0x3F ADD AND DUP2 ADD SWAP1 DUP4 DUP3 GT DUP2 DUP4 LT OR ISZERO PUSH2 0x10F2 JUMPI PUSH2 0x10F2 PUSH2 0x1064 JUMP JUMPDEST DUP2 PUSH1 0x40 MSTORE DUP3 DUP2 MSTORE DUP8 PUSH1 0x20 DUP5 DUP8 ADD ADD GT ISZERO PUSH2 0x110B JUMPI PUSH1 0x0 DUP1 REVERT JUMPDEST PUSH2 0x111C DUP4 PUSH1 0x20 DUP4 ADD PUSH1 0x20 DUP9 ADD PUSH2 0xA4D JUMP JUMPDEST SWAP8 SWAP7 POP POP POP POP POP POP POP JUMP JUMPDEST PUSH1 0x0 PUSH1 0x20 DUP3 DUP5 SUB SLT ISZERO PUSH2 0x1139 JUMPI PUSH1 0x0 DUP1 REVERT JUMPDEST DUP2 MLOAD PUSH2 0xA46 DUP2 PUSH2 0x99F JUMP INVALID LOG2 PUSH5 0x6970667358 0x22 SLT KECCAK256 LOG0 PUSH24 0x92534C397F37062CA2CE49FC8ACE7C3F772993ABA6F6A987 MSIZE DELEGATECALL MSTORE 0xE2 PUSH10 0xAA64736F6C6343000818 STOP CALLER "
        },
        "methodIdentifiers": {
          "calculateV2Prices(uint256,uint256,uint8,uint8)": "78f6cd57",
          "calculateV3Prices(uint160,uint8,uint8)": "e549539c",
          "getBlockInfo()": "00819439",
          "getV2PairInfo(address)": "a294bf7e",
          "getV3PairInfo(address)": "c9f005a6"
        }
      }
    }
  }
}