{
  "_format": "hh-sol-artifact-1",
  "contractName": "SimpleW3box",
  "sourceName": "contracts/examples/SimpleW3box.sol",
  "abi": [
    {
      "inputs": [
        {
          "internalType": "string",
          "name": "_gateway",
          "type": "string"
        }
      ],
      "stateMutability": "nonpayable",
      "type": "constructor"
    },
    {
      "anonymous": false,
      "inputs": [
        {
          "indexed": true,
          "internalType": "address",
          "name": "oldOwner",
          "type": "address"
        },
        {
          "indexed": true,
          "internalType": "address",
          "name": "newOwner",
          "type": "address"
        }
      ],
      "name": "OwnerSet",
      "type": "event"
    },
    {
      "inputs": [
        {
          "internalType": "bytes",
          "name": "name",
          "type": "bytes"
        }
      ],
      "name": "countChunks",
      "outputs": [
        {
          "internalType": "uint256",
          "name": "",
          "type": "uint256"
        }
      ],
      "stateMutability": "view",
      "type": "function"
    },
    {
      "inputs": [],
      "name": "fileFD",
      "outputs": [
        {
          "internalType": "contract FlatDirectory",
          "name": "",
          "type": "address"
        }
      ],
      "stateMutability": "view",
      "type": "function"
    },
    {
      "inputs": [],
      "name": "gateway",
      "outputs": [
        {
          "internalType": "string",
          "name": "",
          "type": "string"
        }
      ],
      "stateMutability": "view",
      "type": "function"
    },
    {
      "inputs": [
        {
          "internalType": "address",
          "name": "author",
          "type": "address"
        }
      ],
      "name": "getAuthorFiles",
      "outputs": [
        {
          "internalType": "uint256[]",
          "name": "times",
          "type": "uint256[]"
        },
        {
          "internalType": "bytes[]",
          "name": "names",
          "type": "bytes[]"
        },
        {
          "internalType": "bytes[]",
          "name": "types",
          "type": "bytes[]"
        },
        {
          "internalType": "string[]",
          "name": "urls",
          "type": "string[]"
        }
      ],
      "stateMutability": "view",
      "type": "function"
    },
    {
      "inputs": [
        {
          "internalType": "bytes",
          "name": "name",
          "type": "bytes"
        },
        {
          "internalType": "uint256",
          "name": "chunkId",
          "type": "uint256"
        }
      ],
      "name": "getChunkHash",
      "outputs": [
        {
          "internalType": "bytes32",
          "name": "",
          "type": "bytes32"
        }
      ],
      "stateMutability": "view",
      "type": "function"
    },
    {
      "inputs": [
        {
          "internalType": "address",
          "name": "author",
          "type": "address"
        },
        {
          "internalType": "bytes",
          "name": "name",
          "type": "bytes"
        }
      ],
      "name": "getNewName",
      "outputs": [
        {
          "internalType": "bytes",
          "name": "",
          "type": "bytes"
        }
      ],
      "stateMutability": "pure",
      "type": "function"
    },
    {
      "inputs": [
        {
          "internalType": "bytes",
          "name": "name",
          "type": "bytes"
        }
      ],
      "name": "getUrl",
      "outputs": [
        {
          "internalType": "string",
          "name": "",
          "type": "string"
        }
      ],
      "stateMutability": "view",
      "type": "function"
    },
    {
      "inputs": [],
      "name": "owner",
      "outputs": [
        {
          "internalType": "address",
          "name": "",
          "type": "address"
        }
      ],
      "stateMutability": "view",
      "type": "function"
    },
    {
      "inputs": [
        {
          "internalType": "bytes",
          "name": "name",
          "type": "bytes"
        }
      ],
      "name": "remove",
      "outputs": [
        {
          "internalType": "uint256",
          "name": "",
          "type": "uint256"
        }
      ],
      "stateMutability": "nonpayable",
      "type": "function"
    },
    {
      "inputs": [
        {
          "internalType": "bytes[]",
          "name": "names",
          "type": "bytes[]"
        }
      ],
      "name": "removes",
      "outputs": [],
      "stateMutability": "nonpayable",
      "type": "function"
    },
    {
      "inputs": [
        {
          "internalType": "string",
          "name": "_gateway",
          "type": "string"
        }
      ],
      "name": "setGateway",
      "outputs": [],
      "stateMutability": "nonpayable",
      "type": "function"
    },
    {
      "inputs": [
        {
          "internalType": "bytes",
          "name": "name",
          "type": "bytes"
        },
        {
          "internalType": "bytes",
          "name": "fileType",
          "type": "bytes"
        },
        {
          "internalType": "bytes",
          "name": "data",
          "type": "bytes"
        }
      ],
      "name": "write",
      "outputs": [],
      "stateMutability": "payable",
      "type": "function"
    },
    {
      "inputs": [
        {
          "internalType": "bytes",
          "name": "name",
          "type": "bytes"
        },
        {
          "internalType": "bytes",
          "name": "fileType",
          "type": "bytes"
        },
        {
          "internalType": "uint256",
          "name": "chunkId",
          "type": "uint256"
        },
        {
          "internalType": "bytes",
          "name": "data",
          "type": "bytes"
        }
      ],
      "name": "writeChunk",
      "outputs": [],
      "stateMutability": "payable",
      "type": "function"
    },
    {
      "stateMutability": "payable",
      "type": "receive"
    }
  ],
  "bytecode": "0x60806040523480156200001157600080fd5b50604051620058c7380380620058c78339810160408190526200003491620000f6565b600180546001600160a01b0319163317905560026200005482826200025c565b5060008060006040516200006890620000d2565b60ff909316835263ffffffff90911660208301526001600160a01b03166040820152606001604051809103906000f080158015620000aa573d6000803e3d6000fd5b50600080546001600160a01b0319166001600160a01b03929092169190911790555062000328565b613b0b8062001dbc83390190565b634e487b7160e01b600052604160045260246000fd5b600060208083850312156200010a57600080fd5b82516001600160401b03808211156200012257600080fd5b818501915085601f8301126200013757600080fd5b8151818111156200014c576200014c620000e0565b604051601f8201601f19908116603f01168101908382118183101715620001775762000177620000e0565b8160405282815288868487010111156200019057600080fd5b600093505b82841015620001b4578484018601518185018701529285019262000195565b600086848301015280965050505050505092915050565b600181811c90821680620001e057607f821691505b6020821081036200020157634e487b7160e01b600052602260045260246000fd5b50919050565b601f82111562000257576000816000526020600020601f850160051c81016020861015620002325750805b601f850160051c820191505b8181101562000253578281556001016200023e565b5050505b505050565b81516001600160401b03811115620002785762000278620000e0565b6200029081620002898454620001cb565b8462000207565b602080601f831160018114620002c85760008415620002af5750858301515b600019600386901b1c1916600185901b17855562000253565b600085815260208120601f198616915b82811015620002f957888601518255948401946001909101908401620002d8565b5085821015620003185787850151600019600388901b60f8161c191681555b5050505050600190811b01905550565b611a8480620003386000396000f3fe6080604052600436106100d65760003560e01c80638da5cb5b1161007f578063ba7caa5511610059578063ba7caa5514610217578063ca504a5814610247578063e44a2d7014610267578063f916c5b01461028757600080fd5b80638da5cb5b146101c45780639000e3eb146101e4578063a75f3a8f1461020457600080fd5b806342216bed116100b057806342216bed1461016157806358edef4c1461018f57806359b1ba51146101af57600080fd5b80630c236a68146100e2578063116191b61461011f5780631756a3fb1461014157600080fd5b366100dd57005b600080fd5b3480156100ee57600080fd5b50600054610102906001600160a01b031681565b6040516001600160a01b0390911681526020015b60405180910390f35b34801561012b57600080fd5b506101346102a7565b6040516101169190610fc6565b34801561014d57600080fd5b5061013461015c3660046110ac565b610335565b34801561016d57600080fd5b5061018161017c3660046110fa565b610375565b604051908152602001610116565b34801561019b57600080fd5b506101816101aa36600461113f565b6103f7565b6101c26101bd3660046111c5565b6106de565b005b3480156101d057600080fd5b50600154610102906001600160a01b031681565b3480156101f057600080fd5b506101c26101ff366004611250565b6106f2565b6101c2610212366004611313565b61072d565b34801561022357600080fd5b506102376102323660046113ac565b61084d565b6040516101169493929190611421565b34801561025357600080fd5b5061013461026236600461113f565b610c2e565b34801561027357600080fd5b506101c26102823660046114e4565b610c5a565b34801561029357600080fd5b506101816102a236600461113f565b610cc6565b600280546102b490611526565b80601f01602080910402602001604051908101604052809291908181526020018280546102e090611526565b801561032d5780601f106103025761010080835404028352916020019161032d565b820191906000526020600020905b81548152906001019060200180831161031057829003601f168201915b505050505081565b606061034b836001600160a01b03166014610d3f565b8260405160200161035d929190611560565b60405160208183030381529060405290505b92915050565b600080546001600160a01b03166342216bed6103913386610335565b846040518363ffffffff1660e01b81526004016103af9291906115b8565b602060405180830381865afa1580156103cc573d6000803e3d6000fd5b505050506040513d601f19601f820116820180604052508101906103f091906115da565b9392505050565b80516020808301919091203360009081526003835260408082208383526001810190945281205490929083036104745760405162461bcd60e51b815260206004820152601360248201527f46696c6520646f6573206e6f742065786973740000000000000000000000000060448201526064015b60405180910390fd5b805460009061048590600190611609565b60008481526001848101602052604082205492935090916104a69190611609565b90508082146105695760008360000183815481106104c6576104c661161c565b90600052602060002090600302019050808460000183815481106104ec576104ec61161c565b60009182526020909120825460039092020190815560018082019061051390840182611682565b5060028181019061052690840182611682565b5061053691508390506001611763565b8460010160008360010160405161054d91906117e9565b6040518091039020815260200190815260200160002081905550505b825483908061057a5761057a6117f5565b600082815260208120600360001990930192830201818155906105a06001830182610f20565b6105ae600283016000610f20565b505090556000848152600184016020526040812081905580546001600160a01b03166358edef4c6105df338a610335565b6040518263ffffffff1660e01b81526004016105fb9190610fc6565b6020604051808303816000875af115801561061a573d6000803e3d6000fd5b505050506040513d601f19601f8201168201806040525081019061063e91906115da565b905060008054906101000a90046001600160a01b03166001600160a01b031663590e1ae36040518163ffffffff1660e01b8152600401600060405180830381600087803b15801561068e57600080fd5b505af11580156106a2573d6000803e3d6000fd5b50506040513392504780156108fc029250906000818181858888f193505050501580156106d3573d6000803e3d6000fd5b509695505050505050565b6106ec84846000858561072d565b50505050565b60005b8151811015610729576107208282815181106107135761071361161c565b60200260200101516103f7565b506001016106f5565b5050565b84516020808701919091203360009081526003835260408082208383526001810190945281205491929190036107d4576040805160608101825242815260208082018a815292820189905283546001818101865560008681529290922083516003909202019081559251919291908201906107a8908261180b565b50604082015160028201906107bd908261180b565b505081546000848152600184016020526040902055505b6000546001600160a01b031663492c7b2a346107f0338b610335565b8888886040518663ffffffff1660e01b815260040161081294939291906118c5565b6000604051808303818588803b15801561082b57600080fd5b505af115801561083f573d6000803e3d6000fd5b505050505050505050505050565b6001600160a01b0381166000908152600360205260409020546060908190819081908067ffffffffffffffff81111561088857610888610ff5565b6040519080825280602002602001820160405280156108b1578160200160208202803683370190505b5094508067ffffffffffffffff8111156108cd576108cd610ff5565b60405190808252806020026020018201604052801561090057816020015b60608152602001906001900390816108eb5790505b5093508067ffffffffffffffff81111561091c5761091c610ff5565b60405190808252806020026020018201604052801561094f57816020015b606081526020019060019003908161093a5790505b5092508067ffffffffffffffff81111561096b5761096b610ff5565b60405190808252806020026020018201604052801561099e57816020015b60608152602001906001900390816109895790505b50915060005b81811015610c25576001600160a01b03871660009081526003602052604090208054829081106109d6576109d661161c565b9060005260206000209060030201600001548682815181106109fa576109fa61161c565b6020908102919091018101919091526001600160a01b0388166000908152600390915260409020805482908110610a3357610a3361161c565b90600052602060002090600302016001018054610a4f90611526565b80601f0160208091040260200160405190810160405280929190818152602001828054610a7b90611526565b8015610ac85780601f10610a9d57610100808354040283529160200191610ac8565b820191906000526020600020905b815481529060010190602001808311610aab57829003601f168201915b5050505050858281518110610adf57610adf61161c565b602002602001018190525060036000886001600160a01b03166001600160a01b031681526020019081526020016000206000018181548110610b2357610b2361161c565b90600052602060002090600302016002018054610b3f90611526565b80601f0160208091040260200160405190810160405280929190818152602001828054610b6b90611526565b8015610bb85780601f10610b8d57610100808354040283529160200191610bb8565b820191906000526020600020905b815481529060010190602001808311610b9b57829003601f168201915b5050505050848281518110610bcf57610bcf61161c565b6020026020010181905250610c0061026288878481518110610bf357610bf361161c565b6020026020010151610335565b838281518110610c1257610c1261161c565b60209081029190910101526001016109a4565b50509193509193565b6060600282604051602001610c44929190611912565b6040516020818303038152906040529050919050565b6001546001600160a01b03163314610cb45760405162461bcd60e51b815260206004820152601360248201527f43616c6c6572206973206e6f74206f776e657200000000000000000000000000604482015260640161046b565b6002610cc1828483611960565b505050565b600080546001600160a01b031663f916c5b0610ce23385610335565b6040518263ffffffff1660e01b8152600401610cfe9190610fc6565b602060405180830381865afa158015610d1b573d6000803e3d6000fd5b505050506040513d601f19601f8201168201806040525081019061036f91906115da565b60606000610d4e836002611a20565b610d59906002611763565b67ffffffffffffffff811115610d7157610d71610ff5565b6040519080825280601f01601f191660200182016040528015610d9b576020820181803683370190505b5090507f300000000000000000000000000000000000000000000000000000000000000081600081518110610dd257610dd261161c565b60200101906001600160f81b031916908160001a9053507f780000000000000000000000000000000000000000000000000000000000000081600181518110610e1d57610e1d61161c565b60200101906001600160f81b031916908160001a9053506000610e41846002611a20565b610e4c906001611763565b90505b6001811115610ed1577f303132333435363738396162636465660000000000000000000000000000000085600f1660108110610e8d57610e8d61161c565b1a60f81b828281518110610ea357610ea361161c565b60200101906001600160f81b031916908160001a90535060049490941c93610eca81611a37565b9050610e4f565b5083156103f05760405162461bcd60e51b815260206004820181905260248201527f537472696e67733a20686578206c656e67746820696e73756666696369656e74604482015260640161046b565b508054610f2c90611526565b6000825580601f10610f3c575050565b601f016020900490600052602060002090810190610f5a9190610f5d565b50565b5b80821115610f725760008155600101610f5e565b5090565b60005b83811015610f91578181015183820152602001610f79565b50506000910152565b60008151808452610fb2816020860160208601610f76565b601f01601f19169290920160200192915050565b6020815260006103f06020830184610f9a565b80356001600160a01b0381168114610ff057600080fd5b919050565b634e487b7160e01b600052604160045260246000fd5b604051601f8201601f1916810167ffffffffffffffff8111828210171561103457611034610ff5565b604052919050565b600082601f83011261104d57600080fd5b813567ffffffffffffffff81111561106757611067610ff5565b61107a601f8201601f191660200161100b565b81815284602083860101111561108f57600080fd5b816020850160208301376000918101602001919091529392505050565b600080604083850312156110bf57600080fd5b6110c883610fd9565b9150602083013567ffffffffffffffff8111156110e457600080fd5b6110f08582860161103c565b9150509250929050565b6000806040838503121561110d57600080fd5b823567ffffffffffffffff81111561112457600080fd5b6111308582860161103c565b95602094909401359450505050565b60006020828403121561115157600080fd5b813567ffffffffffffffff81111561116857600080fd5b6111748482850161103c565b949350505050565b60008083601f84011261118e57600080fd5b50813567ffffffffffffffff8111156111a657600080fd5b6020830191508360208285010111156111be57600080fd5b9250929050565b600080600080606085870312156111db57600080fd5b843567ffffffffffffffff808211156111f357600080fd5b6111ff8883890161103c565b9550602087013591508082111561121557600080fd5b6112218883890161103c565b9450604087013591508082111561123757600080fd5b506112448782880161117c565b95989497509550505050565b6000602080838503121561126357600080fd5b823567ffffffffffffffff8082111561127b57600080fd5b818501915085601f83011261128f57600080fd5b8135818111156112a1576112a1610ff5565b8060051b6112b085820161100b565b91825283810185019185810190898411156112ca57600080fd5b86860192505b83831015611306578235858111156112e85760008081fd5b6112f68b89838a010161103c565b83525091860191908601906112d0565b9998505050505050505050565b60008060008060006080868803121561132b57600080fd5b853567ffffffffffffffff8082111561134357600080fd5b61134f89838a0161103c565b9650602088013591508082111561136557600080fd5b61137189838a0161103c565b955060408801359450606088013591508082111561138e57600080fd5b5061139b8882890161117c565b969995985093965092949392505050565b6000602082840312156113be57600080fd5b6103f082610fd9565b60008282518085526020808601955060208260051b8401016020860160005b8481101561141457601f19868403018952611402838351610f9a565b988401989250908301906001016113e6565b5090979650505050505050565b6080808252855190820181905260009060209060a0840190828901845b8281101561145a5781518452928401929084019060010161143e565b5050508381038285015261146e81886113c7565b9050838103604085015261148281876113c7565b905083810360608501528085518083528383019150838160051b84010184880160005b838110156114d357601f198684030185526114c1838351610f9a565b948701949250908601906001016114a5565b50909b9a5050505050505050505050565b600080602083850312156114f757600080fd5b823567ffffffffffffffff81111561150e57600080fd5b61151a8582860161117c565b90969095509350505050565b600181811c9082168061153a57607f821691505b60208210810361155a57634e487b7160e01b600052602260045260246000fd5b50919050565b60008351611572818460208801610f76565b7f2f0000000000000000000000000000000000000000000000000000000000000090830190815283516115ac816001840160208801610f76565b01600101949350505050565b6040815260006115cb6040830185610f9a565b90508260208301529392505050565b6000602082840312156115ec57600080fd5b5051919050565b634e487b7160e01b600052601160045260246000fd5b8181038181111561036f5761036f6115f3565b634e487b7160e01b600052603260045260246000fd5b601f821115610cc1576000816000526020600020601f850160051c8101602086101561165b5750805b601f850160051c820191505b8181101561167a57828155600101611667565b505050505050565b81810361168d575050565b6116978254611526565b67ffffffffffffffff8111156116af576116af610ff5565b6116c3816116bd8454611526565b84611632565b6000601f8211600181146116f757600083156116df5750848201545b600019600385901b1c1916600184901b17845561175c565b600085815260209020601f19841690600086815260209020845b838110156117315782860154825560019586019590910190602001611711565b508583101561174f5781850154600019600388901b60f8161c191681555b50505060018360011b0184555b5050505050565b8082018082111561036f5761036f6115f3565b6000815461178381611526565b6001828116801561179b57600181146117b0576117df565b60ff19841687528215158302870194506117df565b8560005260208060002060005b858110156117d65781548a8201529084019082016117bd565b50505082870194505b5050505092915050565b60006103f08284611776565b634e487b7160e01b600052603160045260246000fd5b815167ffffffffffffffff81111561182557611825610ff5565b611833816116bd8454611526565b602080601f83116001811461186857600084156118505750858301515b600019600386901b1c1916600185901b17855561167a565b600085815260208120601f198616915b8281101561189757888601518255948401946001909101908401611878565b50858210156118b55787850151600019600388901b60f8161c191681555b5050505050600190811b01905550565b6060815260006118d86060830187610f9a565b8560208401528281036040840152838152838560208301376000602085830101526020601f19601f86011682010191505095945050505050565b600061191e8285611776565b7f66696c652e7733712f000000000000000000000000000000000000000000000081528351611954816009840160208801610f76565b01600901949350505050565b67ffffffffffffffff83111561197857611978610ff5565b61198c836119868354611526565b83611632565b6000601f8411600181146119c057600085156119a85750838201355b600019600387901b1c1916600186901b17835561175c565b600083815260209020601f19861690835b828110156119f157868501358255602094850194600190920191016119d1565b5086821015611a0e5760001960f88860031b161c19848701351681555b505060018560011b0183555050505050565b808202811582820484141761036f5761036f6115f3565b600081611a4657611a466115f3565b50600019019056fea26469706673582212200448faffbe5e4422977b76043fc6cb7f1114007454d9e16985fc687a7777018564736f6c6343000818003360c0604052600060a09081526006906200001a9082620001ae565b503480156200002857600080fd5b5060405162003b0b38038062003b0b8339810160408190526200004b916200027a565b60ff831660805282828281816200006233620000b5565b6002805463ffffffff909316600160a01b0263ffffffff60a01b1990931692909217909155600380546001600160a01b039092166001600160a01b031990921691909117905550620002e6945050505050565b600280546001600160a01b038381166001600160a01b0319831681179093556040519116919082907f8be0079c531659141344cd1fd0a4f28419497f9722a3daafe3b4186f6b6457e090600090a35050565b634e487b7160e01b600052604160045260246000fd5b600181811c908216806200013257607f821691505b6020821081036200015357634e487b7160e01b600052602260045260246000fd5b50919050565b601f821115620001a9576000816000526020600020601f850160051c81016020861015620001845750805b601f850160051c820191505b81811015620001a55782815560010162000190565b5050505b505050565b81516001600160401b03811115620001ca57620001ca62000107565b620001e281620001db84546200011d565b8462000159565b602080601f8311600181146200021a5760008415620002015750858301515b600019600386901b1c1916600185901b178555620001a5565b600085815260208120601f198616915b828110156200024b578886015182559484019460019091019084016200022a565b50858210156200026a5787850151600019600388901b60f8161c191681555b5050505050600190811b01905550565b6000806000606084860312156200029057600080fd5b835160ff81168114620002a257600080fd5b602085015190935063ffffffff81168114620002bd57600080fd5b60408501519092506001600160a01b0381168114620002db57600080fd5b809150509250925092565b60805161380262000309600039600081816105ab01526120db01526138026000f3fe608060405260043610620001ee5760003560e01c8063590e1ae3116200010f578063caf1283611620000a3578063dd473fae116200006d578063dd473fae14620007d1578063f14c7ad71462000806578063f2fde38b146200081e578063f916c5b0146200084357620001ee565b8063caf128361462000710578063cf86bf93146200074b578063d84eb56c1462000787578063dc38b0a214620007ac57620001ee565b80638bf4515c11620000e55780638bf4515c146200065b5780638da5cb5b146200068057806393b7628f14620006a0578063956a343314620006eb57620001ee565b8063590e1ae314620006065780635ba1d9e5146200061e578063715018a6146200064357620001ee565b80631ccbc6da116200018757806342216bed116200015d57806342216bed146200055f578063492c7b2a14620005845780634eed7cf1146200059b57806358edef4c14620005e157620001ee565b80631ccbc6da14620005095780631fbfa12714620005305780632b68b9c6146200054757620001ee565b806311ce026711620001c957806311ce026714620004395780631a7237e014620004745780631c5ee10c14620004a95780631c993ad514620004e457620001ee565b8063038cd79f14620003cb5780630936286114620003e45780631089f40f1462000414575b348015620001fb57600080fd5b5060003660608082840362000221575050604080516020810190915260008152620003c0565b8383600081811062000237576200023762002ca0565b9050013560f81c60f81b7effffffffffffffffffffffffffffffffffffffffffffffffffffffffffffff1916602f60f81b14620002aa57505060408051808201909152600e81527f696e636f727265637420706174680000000000000000000000000000000000006020820152620003c0565b8383620002b960018262002ccc565b818110620002cb57620002cb62002ca0565b909101357fff00000000000000000000000000000000000000000000000000000000000000167f2f000000000000000000000000000000000000000000000000000000000000000390506200036157620003586200032d846001818862002ce2565b6006604051602001620003439392919062002d44565b60405160208183030381529060405262000868565b509050620003b3565b620003af62000374846001818862002ce2565b8080601f0160208091040260200160405190810160405280939291908181526020018383808284376000920191909152506200086892505050565b5090505b620003be8162000913565b505b915050805190602001f35b620003e2620003dc36600462002ee7565b62000947565b005b348015620003f157600080fd5b50620003fc620009aa565b6040516200040b919062002fab565b60405180910390f35b3480156200042157600080fd5b50620003e26200043336600462002fc0565b62000a40565b3480156200044657600080fd5b506003546200045b906001600160a01b031681565b6040516001600160a01b0390911681526020016200040b565b3480156200048157600080fd5b50620004996200049336600462002fe8565b62000ac9565b6040516200040b92919062003031565b348015620004b657600080fd5b50620004ce620004c836600462003057565b62000b79565b604080519283526020830191909152016200040b565b348015620004f157600080fd5b50620003e26200050336600462003057565b62000c0c565b3480156200051657600080fd5b506200052162000c69565b6040519081526020016200040b565b620003e26200054136600462003121565b62000cdf565b3480156200055457600080fd5b50620003e262000e98565b3480156200056c57600080fd5b50620005216200057e36600462002fe8565b62000ef1565b620003e262000595366004620031b3565b62000f9c565b348015620005a857600080fd5b507f000000000000000000000000000000000000000000000000000000000000000060ff1615155b60405190151581526020016200040b565b348015620005ee57600080fd5b50620005216200060036600462003057565b620010da565b3480156200061357600080fd5b50620003e2620011c0565b3480156200062b57600080fd5b50620005d06200063d36600462002fe8565b62001248565b3480156200065057600080fd5b50620003e262001326565b3480156200066857600080fd5b50620004996200067a36600462003057565b62000868565b3480156200068d57600080fd5b506002546001600160a01b03166200045b565b348015620006ad57600080fd5b50620006dc620006bf36600462003057565b805160209182012060009081526005909152604090205460ff1690565b6040516200040b919062003240565b348015620006f857600080fd5b50620005216200070a3660046200325d565b6200137f565b3480156200071d57600080fd5b50620007356200072f36600462002fe8565b62001452565b604080519283529015156020830152016200040b565b3480156200075857600080fd5b506002546200077190600160a01b900463ffffffff1681565b60405163ffffffff90911681526020016200040b565b3480156200079457600080fd5b5062000521620007a636600462002fe8565b620014e8565b348015620007b957600080fd5b50620003e2620007cb36600462003280565b620015bc565b348015620007de57600080fd5b507f6d616e75616c000000000000000000000000000000000000000000000000000062000521565b3480156200081357600080fd5b50620005d062001636565b3480156200082b57600080fd5b50620003e26200083d36600462003280565b62001662565b3480156200085057600080fd5b50620005216200086236600462003057565b62001736565b60606000806200088f84805160209182012060009081526005909152604090205460ff1690565b90506002816002811115620008a857620008a86200322a565b03620008ca57620008c08480519060200120620017bb565b9250925050915091565b6001816002811115620008e157620008e16200322a565b03620008f957620008c08480519060200120620019af565b505060408051600080825260208201909252939092509050565b600081516040620009259190620032ab565b9050601f196200093782601f620032ab565b1690506020808303528060208303f35b6002546001600160a01b03163314620009965760405162461bcd60e51b81526020600482018190526024820152600080516020620037ad83398151915260448201526064015b60405180910390fd5b620009a5836000848462000f9c565b505050565b60068054620009b99062002d0e565b80601f0160208091040260200160405190810160405280929190818152602001828054620009e79062002d0e565b801562000a385780601f1062000a0c5761010080835404028352916020019162000a38565b820191906000526020600020905b81548152906001019060200180831162000a1a57829003601f168201915b505050505081565b6002546001600160a01b0316331462000a8b5760405162461bcd60e51b81526020600482018190526024820152600080516020620037ad83398151915260448201526064016200098d565b6002805463ffffffff909216600160a01b027fffffffffffffffff00000000ffffffffffffffffffffffffffffffffffffffff909216919091179055565b606060008062000af085805160209182012060009081526005909152604090205460ff1690565b9050600281600281111562000b095762000b096200322a565b0362000b2d5762000b2285805190602001208562001ad0565b925092505062000b72565b600181600281111562000b445762000b446200322a565b0362000b5d5762000b2285805190602001208562001bad565b50506040805160008082526020820190925291505b9250929050565b600080600062000ba084805160209182012060009081526005909152604090205460ff1690565b9050600281600281111562000bb95762000bb96200322a565b0362000bd157620008c0848051906020012062001c26565b600181600281111562000be85762000be86200322a565b0362000c0057620008c0848051906020012062001cf1565b50600093849350915050565b6002546001600160a01b0316331462000c575760405162461bcd60e51b81526020600482018190526024820152600080516020620037ad83398151915260448201526064016200098d565b600662000c6582826200330d565b5050565b60035460408051630e65e36d60e11b815290516000926001600160a01b031691631ccbc6da9160048083019260209291908290030181865afa15801562000cb4573d6000803e3d6000fd5b505050506040513d601f19601f8201168201806040525081019062000cda9190620033da565b905090565b6002546001600160a01b0316331462000d2a5760405162461bcd60e51b81526020600482018190526024820152600080516020620037ad83398151915260448201526064016200098d565b62000d3462001636565b62000da85760405162461bcd60e51b815260206004820152603060248201527f5468652063757272656e74206e6574776f726b20646f6573206e6f742073757060448201527f706f727420626c6f622075706c6f61640000000000000000000000000000000060648201526084016200098d565b600062000dcc84805160209182012060009081526005909152604090205460ff1690565b9050600081600281111562000de55762000de56200322a565b148062000e065750600281600281111562000e045762000e046200322a565b145b62000e545760405162461bcd60e51b815260206004820152601460248201527f496e76616c69642073746f72616765206d6f646500000000000000000000000060448201526064016200098d565b600081600281111562000e6b5762000e6b6200322a565b0362000e7e5762000e7e84600262001d48565b62000e928480519060200120848462001d8a565b50505050565b6002546001600160a01b0316331462000ee35760405162461bcd60e51b81526020600482018190526024820152600080516020620037ad83398151915260448201526064016200098d565b6002546001600160a01b0316ff5b60008062000f1684805160209182012060009081526005909152604090205460ff1690565b9050600281600281111562000f2f5762000f2f6200322a565b0362000f515762000f488480519060200120846200137f565b91505062000f96565b600181600281111562000f685762000f686200322a565b0362000f9057600062000f7c858562000ac9565b508051602090910120925062000f96915050565b50600090505b92915050565b6002546001600160a01b0316331462000fe75760405162461bcd60e51b81526020600482018190526024820152600080516020620037ad83398151915260448201526064016200098d565b60006200100b85805160209182012060009081526005909152604090205460ff1690565b905060008160028111156200102457620010246200322a565b148062001045575060018160028111156200104357620010436200322a565b145b620010935760405162461bcd60e51b815260206004820152601460248201527f496e76616c69642073746f72616765206d6f646500000000000000000000000060448201526064016200098d565b6000816002811115620010aa57620010aa6200322a565b03620010bd57620010bd85600162001d48565b620010d3858051906020012085858534620020cb565b5050505050565b6002546000906001600160a01b03163314620011285760405162461bcd60e51b81526020600482018190526024820152600080516020620037ad83398151915260448201526064016200098d565b60006200114c83805160209182012060009081526005909152604090205460ff1690565b905060028160028111156200116557620011656200322a565b0362001186576200117f83805190602001206000620021b4565b9392505050565b60018160028111156200119d576200119d6200322a565b03620011b7576200117f8380519060200120600062002214565b50600092915050565b6002546001600160a01b031633146200120b5760405162461bcd60e51b81526020600482018190526024820152600080516020620037ad83398151915260448201526064016200098d565b6002546040516001600160a01b03909116904780156108fc02916000818181858888f1935050505015801562001245573d6000803e3d6000fd5b50565b6002546000906001600160a01b03163314620012965760405162461bcd60e51b81526020600482018190526024820152600080516020620037ad83398151915260448201526064016200098d565b6000620012ba84805160209182012060009081526005909152604090205460ff1690565b90506002816002811115620012d357620012d36200322a565b03620012ec5762000f48848051906020012084620022d6565b60018160028111156200130357620013036200322a565b036200131c5762000f488480519060200120846200235e565b5060009392505050565b6002546001600160a01b03163314620013715760405162461bcd60e51b81526020600482018190526024820152600080516020620037ad83398151915260448201526064016200098d565b6200137d60006200244e565b565b60006200138c83620024ad565b82106200139c5750600062000f96565b6003546000848152600460208181526040808420878552909152918290205491517fd8389dc5000000000000000000000000000000000000000000000000000000008152908101919091526001600160a01b039091169063d8389dc590602401602060405180830381865afa1580156200141a573d6000803e3d6000fd5b505050506040513d601f19601f82011682018060405250810190620014409190620033f4565b67ffffffffffffffff19169392505050565b60008060006200147985805160209182012060009081526005909152604090205460ff1690565b905060028160028111156200149257620014926200322a565b03620014ab5762000b22858051906020012085620024ee565b6001816002811115620014c257620014c26200322a565b03620014db5762000b22858051906020012085620025a2565b5060009485945092505050565b6002546000906001600160a01b03163314620015365760405162461bcd60e51b81526020600482018190526024820152600080516020620037ad83398151915260448201526064016200098d565b60006200155a84805160209182012060009081526005909152604090205460ff1690565b905060028160028111156200157357620015736200322a565b036200158c5762000f48848051906020012084620021b4565b6001816002811115620015a357620015a36200322a565b036200131c5762000f4884805190602001208462002214565b6002546001600160a01b03163314620016075760405162461bcd60e51b81526020600482018190526024820152600080516020620037ad83398151915260448201526064016200098d565b6003805473ffffffffffffffffffffffffffffffffffffffff19166001600160a01b0392909216919091179055565b6003546000906001600160a01b03161580159062000cda575060006200165b62000c69565b1015905090565b6002546001600160a01b03163314620016ad5760405162461bcd60e51b81526020600482018190526024820152600080516020620037ad83398151915260448201526064016200098d565b6001600160a01b0381166200172b5760405162461bcd60e51b815260206004820152602660248201527f4f776e61626c653a206e6577206f776e657220697320746865207a65726f206160448201527f646472657373000000000000000000000000000000000000000000000000000060648201526084016200098d565b62001245816200244e565b6000806200175b83805160209182012060009081526005909152604090205460ff1690565b905060028160028111156200177457620017746200322a565b036200178c576200117f8380519060200120620024ad565b6001816002811115620017a357620017a36200322a565b03620011b7576200117f8380519060200120620025fa565b60606000806000620017cd8562001c26565b9150915080600003620018155760005b6040519080825280601f01601f19166020018201604052801562001808576020820181803683370190505b5095600095509350505050565b60008267ffffffffffffffff81111562001833576200183362002dd1565b6040519080825280601f01601f1916602001820160405280156200185e576020820181803683370190505b5090506000805b83811015620019a057600088815260046020818152604080842085855290915280832054600354915163afd5644d60e01b815292830181905292916001600160a01b039091169063afd5644d90602401602060405180830381865afa158015620018d3573d6000803e3d6000fd5b505050506040513d601f19601f82011682018060405250810190620018f99190620033da565b60035460405163bea94b8b60e01b81529192506001600160a01b03169063bea94b8b9062001934908590600190600090879060040162003421565b600060405180830381865afa15801562001952573d6000803e3d6000fd5b505050506040513d6000823e601f3d908101601f191682016040526200197c919081019062003456565b508060406020868801013e620019938185620032ab565b9350505060010162001865565b50909660019650945050505050565b60606000806000620019c18562001cf1565b9150915080600003620019d6576000620017dd565b60008267ffffffffffffffff811115620019f457620019f462002dd1565b6040519080825280601f01601f19166020018201604052801562001a1f576020820181803683370190505b5090506020810160005b83811015620019a0576000888152602081815260408083208484529091528120549062001a568262002639565b1562001a985762001a678260e01c90565b60008b8152600160209081526040808320878452909152902090915062001a909083866200264e565b505062001ab7565b8162001aa481620026f6565b50915062001ab381866200275c565b5050505b62001ac38185620032ab565b9350505060010162001a29565b606060008062001ae18585620024ee565b509050600181101562001b0857505060408051600080825260208201909252915062000b72565b600354600086815260046020818152604080842089855290915280832054905163bea94b8b60e01b815292936001600160a01b03169263bea94b8b9262001b589291600191879189910162003421565b600060405180830381865afa15801562001b76573d6000803e3d6000fd5b505050506040513d6000823e601f3d908101601f1916820160405262001ba0919081019062003456565b9660019650945050505050565b6000828152602081815260408083208484529091528120546060919062001bd48162002639565b1562001c0e576000858152600160209081526040808320878452909152812062001bff9083620027bb565b93506001925062000b72915050565b8062001c1a8162002856565b93509350505062000b72565b600080600062001c3684620024ad565b90506000805b8281101562001ce75760035460008781526004602081815260408084208685529091529182902054915163afd5644d60e01b8152908101919091526001600160a01b039091169063afd5644d90602401602060405180830381865afa15801562001caa573d6000803e3d6000fd5b505050506040513d601f19601f8201168201806040525081019062001cd09190620033da565b62001cdc9083620032ab565b915060010162001c3c565b5094909350915050565b6000806000805b60008062001d078784620025a2565b915091508062001d1957505062001d3e565b62001d258285620032ab565b93508262001d3381620034d6565b935050505062001cf8565b9094909350915050565b81516020808401919091206000908152600590915260409020805482919060ff1916600183600281111562001d815762001d816200322a565b02179055505050565b815160035460408051630e65e36d60e11b815290516000926001600160a01b031691631ccbc6da9160048083019260209291908290030181865afa15801562001dd7573d6000803e3d6000fd5b505050506040513d601f19601f8201168201806040525081019062001dfd9190620033da565b905062001e0b8282620034f2565b34101562001e5c5760405162461bcd60e51b815260206004820152601460248201527f696e73756666696369656e742062616c616e636500000000000000000000000060448201526064016200098d565b60005b828160ff161015620020c357838160ff168151811062001e835762001e8362002ca0565b6020026020010151600010801562001ed25750600260149054906101000a900463ffffffff1663ffffffff16848260ff168151811062001ec75762001ec762002ca0565b602002602001015111155b62001f205760405162461bcd60e51b815260206004820152601460248201527f696e76616c6964206368756e6b206c656e67746800000000000000000000000060448201526064016200098d565b62001f4b86868360ff168151811062001f3d5762001f3d62002ca0565b6020026020010151620028fd565b60003387878460ff168151811062001f675762001f6762002ca0565b602002602001015160405160200162001f9e939291906001600160a01b039390931683526020830191909152604082015260600190565b604051602081830303815290604052805190602001209050600360009054906101000a90046001600160a01b03166001600160a01b0316634581a920848385898760ff168151811062001ff55762001ff562002ca0565b60200260200101516040518563ffffffff1660e01b8152600401620020309392919092835260ff919091166020830152604082015260600190565b6000604051808303818588803b1580156200204a57600080fd5b505af11580156200205f573d6000803e3d6000fd5b505050505080600460008981526020019081526020016000206000888560ff168151811062002092576200209262002ca0565b6020026020010151815260200190815260200160002081905550508080620020ba906200350c565b91505062001e5f565b505050505050565b620020d78585620029a2565b60ff7f0000000000000000000000000000000000000000000000000000000000000000168211156200213e57620021206200211484848462002ac1565b6001600160a01b031690565b600086815260208181526040808320888452909152902055620010d3565b60008581526001602090815260408083208784528252918290208251601f860183900483028101830190935284835262002195929091869086908190840183828082843760009201919091525062002b7d92505050565b6000868152602081815260408083208884529091529020555050505050565b60005b600083815260046020908152604080832085845290915290205480620021de57506200220e565b6000848152600460209081526040808320868452909152812055826200220481620034d6565b93505050620021b7565b50919050565b60005b600083815260208181526040808320858452909152902054806200223c57506200220e565b620022478162002639565b620022a8576000819050806001600160a01b0316632b68b9c66040518163ffffffff1660e01b8152600401600060405180830381600087803b1580156200228d57600080fd5b505af1158015620022a2573d6000803e3d6000fd5b50505050505b60008481526020818152604080832086845290915281205582620022cc81620034d6565b9350505062002217565b6000828152600460209081526040808320848452909152812054806200230157600091505062000f96565b6000848152600460205260408120816200231d866001620032ab565b815260200190815260200160002054146200233d57600091505062000f96565b50506000918252600460209081526040808420928452919052812055600190565b600082815260208181526040808320848452909152812054806200238757600091505062000f96565b600084815260208190526040812081620023a3866001620032ab565b81526020019081526020016000205414620023c357600091505062000f96565b620023ce8162002639565b6200242f576000819050806001600160a01b0316632b68b9c66040518163ffffffff1660e01b8152600401600060405180830381600087803b1580156200241457600080fd5b505af115801562002429573d6000803e3d6000fd5b50505050505b5050600091825260208281526040808420928452919052812055600190565b600280546001600160a01b0383811673ffffffffffffffffffffffffffffffffffffffff19831681179093556040519116919082907f8be0079c531659141344cd1fd0a4f28419497f9722a3daafe3b4186f6b6457e090600090a35050565b6000805b600083815260046020908152604080832084845290915290205480620024d8575062000f96565b81620024e481620034d6565b92505050620024b1565b600080620024fc84620024ad565b83106200250f5750600090508062000b72565b600354600085815260046020818152604080842088855290915280832054905163afd5644d60e01b81529182015290916001600160a01b03169063afd5644d90602401602060405180830381865afa15801562002570573d6000803e3d6000fd5b505050506040513d601f19601f82011682018060405250810190620025969190620033da565b95600195509350505050565b600082815260208181526040808320848452909152812054819080620025d057600080925092505062000b72565b620025db8162002639565b15620025ee57600062001bff8260e01c90565b8062001c1a81620026f6565b6000805b6000838152602081815260408083208484529091529020548062002623575062000f96565b816200262f81620034d6565b92505050620025fe565b600080620026478360e01c90565b1192915050565b60008060006200265e8562002c0b565b808652909350905083601c841115620026e857601c81016000805b602060016200268a601c8a62002ccc565b62002697906020620032ab565b620026a3919062002ccc565b620026af91906200352e565b811015620026e457600081815260208b81526040909120548085529250620026d9908490620032ab565b925060010162002679565b5050505b600192505050935093915050565b6000806001600160a01b0383166200271357506000928392509050565b6000806040518061016001604052806101268152602001620036876101269139519050843b91508082101562002750575060009485945092505050565b62002596818362002ccc565b6000806000806200276d86620026f6565b9150915080620027865760008093509350505062000b72565b60006040518061016001604052806101268152602001620036876101269139519050828187893c509095600195509350505050565b60606000620027ca8362002c26565b92509050601c8111156200284f57603c82016000805b60206001620027f1601c8762002ccc565b620027fe906020620032ab565b6200280a919062002ccc565b6200281691906200352e565b8110156200284b5760008181526020888152604090912054808552925062002840908490620032ab565b9250600101620027e0565b5050505b5092915050565b606060008060006200286885620026f6565b91509150806200287a576000620017dd565b60008267ffffffffffffffff81111562002898576200289862002dd1565b6040519080825280601f01601f191660200182016040528015620028c3576020820181803683370190505b50905060006040518061016001604052806101268152602001620036876101269139519050838160208401893c5095600195509350505050565b600082815260046020908152604080832084845290915290205480620009a5578115806200295457506000838152600460205260408120816200294260018662002ccc565b81526020019081526020016000205414155b620009a55760405162461bcd60e51b815260206004820152601660248201527f6d757374207265706c616365206f7220617070656e640000000000000000000060448201526064016200098d565b6000828152602081815260408083208484529091529020548062002a4557811580620029f75750600083815260208190526040812081620029e560018662002ccc565b81526020019081526020016000205414155b62002a455760405162461bcd60e51b815260206004820152601660248201527f6d757374207265706c616365206f7220617070656e640000000000000000000060448201526064016200098d565b62002a508162002639565b620009a557806001600160a01b0381161562000e9257806001600160a01b0316632b68b9c66040518163ffffffff1660e01b8152600401600060405180830381600087803b15801562002aa257600080fd5b505af115801562002ab7573d6000803e3d6000fd5b5050505050505050565b6000806040518061016001604052806101268152602001620036876101269139858560405160200162002af79392919062003551565b60408051601f198184030181529190529050600062002b1960436020620032ab565b3083820152905062002b2e608c6020620032ab565b90503081830152506000838260405162002b489062002c92565b62002b54919062002fab565b6040518091039082f090508015801562002b72573d6000803e3d6000fd5b509695505050505050565b805160208083015160e083901b911c1790601c8111156200284f576000603c8401815b6020600162002bb1601c8762002ccc565b62002bbe906020620032ab565b62002bca919062002ccc565b62002bd691906200352e565b8110156200284b578151925062002bef826020620032ab565b6000828152602089905260409020849055915060010162002ba0565b60008062002c198360e01c90565b9360209390931b92915050565b6000606062002c358360e01c90565b9150602083901b92508167ffffffffffffffff81111562002c5a5762002c5a62002dd1565b6040519080825280601f01601f19166020018201604052801562002c85576020820181803683370190505b5060208101939093525091565b61010b806200357c83390190565b634e487b7160e01b600052603260045260246000fd5b634e487b7160e01b600052601160045260246000fd5b8181038181111562000f965762000f9662002cb6565b6000808585111562002cf357600080fd5b8386111562002d0157600080fd5b5050820193919092039150565b600181811c9082168062002d2357607f821691505b6020821081036200220e57634e487b7160e01b600052602260045260246000fd5b828482376000838201600081526000845462002d608162002d0e565b6001828116801562002d7b576001811462002d915762002dc2565b60ff198416865282151583028601945062002dc2565b8860005260208060002060005b8581101562002db95781548982015290840190820162002d9e565b50505082860194505b50929998505050505050505050565b634e487b7160e01b600052604160045260246000fd5b604051601f8201601f1916810167ffffffffffffffff8111828210171562002e135762002e1362002dd1565b604052919050565b600067ffffffffffffffff82111562002e385762002e3862002dd1565b50601f01601f191660200190565b600082601f83011262002e5857600080fd5b813562002e6f62002e698262002e1b565b62002de7565b81815284602083860101111562002e8557600080fd5b816020850160208301376000918101602001919091529392505050565b60008083601f84011262002eb557600080fd5b50813567ffffffffffffffff81111562002ece57600080fd5b60208301915083602082850101111562000b7257600080fd5b60008060006040848603121562002efd57600080fd5b833567ffffffffffffffff8082111562002f1657600080fd5b62002f248783880162002e46565b9450602086013591508082111562002f3b57600080fd5b5062002f4a8682870162002ea2565b9497909650939450505050565b60005b8381101562002f7457818101518382015260200162002f5a565b50506000910152565b6000815180845262002f9781602086016020860162002f57565b601f01601f19169290920160200192915050565b6020815260006200117f602083018462002f7d565b60006020828403121562002fd357600080fd5b813563ffffffff811681146200117f57600080fd5b6000806040838503121562002ffc57600080fd5b823567ffffffffffffffff8111156200301457600080fd5b620030228582860162002e46565b95602094909401359450505050565b60408152600062003046604083018562002f7d565b905082151560208301529392505050565b6000602082840312156200306a57600080fd5b813567ffffffffffffffff8111156200308257600080fd5b620030908482850162002e46565b949350505050565b600082601f830112620030aa57600080fd5b8135602067ffffffffffffffff821115620030c957620030c962002dd1565b8160051b620030da82820162002de7565b9283528481018201928281019087851115620030f557600080fd5b83870192505b848310156200311657823582529183019190830190620030fb565b979650505050505050565b6000806000606084860312156200313757600080fd5b833567ffffffffffffffff808211156200315057600080fd5b6200315e8783880162002e46565b945060208601359150808211156200317557600080fd5b620031838783880162003098565b935060408601359150808211156200319a57600080fd5b50620031a98682870162003098565b9150509250925092565b60008060008060608587031215620031ca57600080fd5b843567ffffffffffffffff80821115620031e357600080fd5b620031f18883890162002e46565b95506020870135945060408701359150808211156200320f57600080fd5b506200321e8782880162002ea2565b95989497509550505050565b634e487b7160e01b600052602160045260246000fd5b60208101600383106200325757620032576200322a565b91905290565b600080604083850312156200327157600080fd5b50508035926020909101359150565b6000602082840312156200329357600080fd5b81356001600160a01b03811681146200117f57600080fd5b8082018082111562000f965762000f9662002cb6565b601f821115620009a5576000816000526020600020601f850160051c81016020861015620032ec5750805b601f850160051c820191505b81811015620020c357828155600101620032f8565b815167ffffffffffffffff8111156200332a576200332a62002dd1565b62003342816200333b845462002d0e565b84620032c1565b602080601f8311600181146200337a5760008415620033615750858301515b600019600386901b1c1916600185901b178555620020c3565b600085815260208120601f198616915b82811015620033ab578886015182559484019460019091019084016200338a565b5085821015620033ca5787850151600019600388901b60f8161c191681555b5050505050600190811b01905550565b600060208284031215620033ed57600080fd5b5051919050565b6000602082840312156200340757600080fd5b815167ffffffffffffffff19811681146200117f57600080fd5b84815260808101600285106200343b576200343b6200322a565b84602083015283604083015282606083015295945050505050565b6000602082840312156200346957600080fd5b815167ffffffffffffffff8111156200348157600080fd5b8201601f810184136200349357600080fd5b8051620034a462002e698262002e1b565b818152856020838501011115620034ba57600080fd5b620034cd82602083016020860162002f57565b95945050505050565b600060018201620034eb57620034eb62002cb6565b5060010190565b808202811582820484141762000f965762000f9662002cb6565b600060ff821660ff810362003525576200352562002cb6565b60010192915050565b6000826200354c57634e487b7160e01b600052601260045260246000fd5b500490565b600084516200356581846020890162002f57565b820183858237600093019283525090939250505056fe608060405260405161010b38038061010b83398101604081905261002291610041565b80518060208301f35b634e487b7160e01b600052604160045260246000fd5b6000602080838503121561005457600080fd5b82516001600160401b038082111561006b57600080fd5b818501915085601f83011261007f57600080fd5b8151818111156100915761009161002b565b604051601f8201601f19908116603f011681019083821181831017156100b9576100b961002b565b8160405282815288868487010111156100d157600080fd5b600093505b828410156100f357848401860151818501870152928501926100d6565b60008684830101528096505050505050509291505056fe6080604052348015600f57600080fd5b506004361060325760003560e01c80632b68b9c61460375780638da5cb5b14603f575b600080fd5b603d6081565b005b60657f000000000000000000000000000000000000000000000000000000000000000081565b6040516001600160a01b03909116815260200160405180910390f35b336001600160a01b037f0000000000000000000000000000000000000000000000000000000000000000161460ed5760405162461bcd60e51b815260206004820152600e60248201526d3737ba10333937b69037bbb732b960911b604482015260640160405180910390fd5b33fffea2646970667358221220fc66c9afb7cb2f6209ae28167cf26c6c06f86a82cbe3c56de99027979389a1be64736f6c634300080700334f776e61626c653a2063616c6c6572206973206e6f7420746865206f776e6572a26469706673582212200a33ece535708501d22bdd58b04457d720685042309c482c4623853c936d18d364736f6c63430008180033",
  "linkReferences": {},
  "deployedLinkReferences": {}
}